{
	"addFiveStorage.sol": {
		"AddFiveStorage": {
			"abi": [
				{
					"inputs": [
						{
							"internalType": "uint256",
							"name": "_age",
							"type": "uint256"
						},
						{
							"internalType": "string",
							"name": "_name",
							"type": "string"
						}
					],
					"name": "addPerson",
					"outputs": [],
					"stateMutability": "nonpayable",
					"type": "function"
				},
				{
					"inputs": [
						{
							"internalType": "string",
							"name": "",
							"type": "string"
						}
					],
					"name": "dictPerson",
					"outputs": [
						{
							"internalType": "uint256",
							"name": "",
							"type": "uint256"
						}
					],
					"stateMutability": "view",
					"type": "function"
				},
				{
					"inputs": [],
					"name": "getFavNum",
					"outputs": [
						{
							"internalType": "uint256",
							"name": "",
							"type": "uint256"
						}
					],
					"stateMutability": "view",
					"type": "function"
				},
				{
					"inputs": [
						{
							"internalType": "uint256",
							"name": "",
							"type": "uint256"
						}
					],
					"name": "listOfPeople",
					"outputs": [
						{
							"internalType": "uint256",
							"name": "favNum",
							"type": "uint256"
						},
						{
							"internalType": "string",
							"name": "name",
							"type": "string"
						}
					],
					"stateMutability": "view",
					"type": "function"
				},
				{
					"inputs": [
						{
							"internalType": "uint256",
							"name": "_newNumber",
							"type": "uint256"
						}
					],
					"name": "store",
					"outputs": [],
					"stateMutability": "nonpayable",
					"type": "function"
				}
			],
			"devdoc": {
				"kind": "dev",
				"methods": {},
				"version": 1
			},
			"evm": {
				"assembly": "    /* \"addFiveStorage.sol\":127:388  contract AddFiveStorage is SimpleStorage {... */\n  mstore(0x40, 0x80)\n  callvalue\n  dup1\n  iszero\n  tag_1\n  jumpi\n  revert(0x00, 0x00)\ntag_1:\n  pop\n  dataSize(sub_0)\n  dup1\n  dataOffset(sub_0)\n  0x00\n  codecopy\n  0x00\n  return\nstop\n\nsub_0: assembly {\n        /* \"addFiveStorage.sol\":127:388  contract AddFiveStorage is SimpleStorage {... */\n      mstore(0x40, 0x80)\n      callvalue\n      dup1\n      iszero\n      tag_1\n      jumpi\n      revert(0x00, 0x00)\n    tag_1:\n      pop\n      jumpi(tag_2, lt(calldatasize, 0x04))\n      shr(0xe0, calldataload(0x00))\n      dup1\n      0x18f0822a\n      eq\n      tag_3\n      jumpi\n      dup1\n      0x2ebce631\n      eq\n      tag_4\n      jumpi\n      dup1\n      0x6057361d\n      eq\n      tag_5\n      jumpi\n      dup1\n      0x7b656fba\n      eq\n      tag_6\n      jumpi\n      dup1\n      0xbc832d4e\n      eq\n      tag_7\n      jumpi\n    tag_2:\n      revert(0x00, 0x00)\n        /* \"simpleStorage.sol\":859:903  mapping(string => uint256) public dictPerson */\n    tag_3:\n      tag_8\n      0x04\n      dup1\n      calldatasize\n      sub\n      dup2\n      add\n      swap1\n      tag_9\n      swap2\n      swap1\n      tag_10\n      jump\t// in\n    tag_9:\n      tag_11\n      jump\t// in\n    tag_8:\n      mload(0x40)\n      tag_12\n      swap2\n      swap1\n      tag_13\n      jump\t// in\n    tag_12:\n      mload(0x40)\n      dup1\n      swap2\n      sub\n      swap1\n      return\n        /* \"simpleStorage.sol\":798:826  Person[] public listOfPeople */\n    tag_4:\n      tag_14\n      0x04\n      dup1\n      calldatasize\n      sub\n      dup2\n      add\n      swap1\n      tag_15\n      swap2\n      swap1\n      tag_16\n      jump\t// in\n    tag_15:\n      tag_17\n      jump\t// in\n    tag_14:\n      mload(0x40)\n      tag_18\n      swap3\n      swap2\n      swap1\n      tag_19\n      jump\t// in\n    tag_18:\n      mload(0x40)\n      dup1\n      swap2\n      sub\n      swap1\n      return\n        /* \"addFiveStorage.sol\":286:383  function store(uint256 _newNumber) public override {... */\n    tag_5:\n      tag_20\n      0x04\n      dup1\n      calldatasize\n      sub\n      dup2\n      add\n      swap1\n      tag_21\n      swap2\n      swap1\n      tag_16\n      jump\t// in\n    tag_21:\n      tag_22\n      jump\t// in\n    tag_20:\n      stop\n        /* \"simpleStorage.sol\":1763:1996  function getFavNum() public view returns (uint256){... */\n    tag_6:\n      tag_23\n      tag_24\n      jump\t// in\n    tag_23:\n      mload(0x40)\n      tag_25\n      swap2\n      swap1\n      tag_13\n      jump\t// in\n    tag_25:\n      mload(0x40)\n      dup1\n      swap2\n      sub\n      swap1\n      return\n        /* \"simpleStorage.sol\":2344:2498  function addPerson(uint256 _age, string memory _name) public{... */\n    tag_7:\n      tag_26\n      0x04\n      dup1\n      calldatasize\n      sub\n      dup2\n      add\n      swap1\n      tag_27\n      swap2\n      swap1\n      tag_28\n      jump\t// in\n    tag_27:\n      tag_29\n      jump\t// in\n    tag_26:\n      stop\n        /* \"simpleStorage.sol\":859:903  mapping(string => uint256) public dictPerson */\n    tag_11:\n      0x02\n      dup2\n      dup1\n      mload\n      0x20\n      dup2\n      add\n      dup3\n      add\n      dup1\n      mload\n      dup5\n      dup3\n      mstore\n      0x20\n      dup4\n      add\n      0x20\n      dup6\n      add\n      keccak256\n      dup2\n      dup4\n      mstore\n      dup1\n      swap6\n      pop\n      pop\n      pop\n      pop\n      pop\n      pop\n      0x00\n      swap2\n      pop\n      swap1\n      pop\n      sload\n      dup2\n      jump\t// out\n        /* \"simpleStorage.sol\":798:826  Person[] public listOfPeople */\n    tag_17:\n      0x01\n      dup2\n      dup2\n      sload\n      dup2\n      lt\n      tag_30\n      jumpi\n      0x00\n      dup1\n      revert\n    tag_30:\n      swap1\n      0x00\n      mstore\n      keccak256(0x00, 0x20)\n      swap1\n      0x02\n      mul\n      add\n      0x00\n      swap2\n      pop\n      swap1\n      pop\n      dup1\n      0x00\n      add\n      sload\n      swap1\n      dup1\n      0x01\n      add\n      dup1\n      sload\n      tag_32\n      swap1\n      tag_33\n      jump\t// in\n    tag_32:\n      dup1\n      0x1f\n      add\n      0x20\n      dup1\n      swap2\n      div\n      mul\n      0x20\n      add\n      mload(0x40)\n      swap1\n      dup2\n      add\n      0x40\n      mstore\n      dup1\n      swap3\n      swap2\n      swap1\n      dup2\n      dup2\n      mstore\n      0x20\n      add\n      dup3\n      dup1\n      sload\n      tag_34\n      swap1\n      tag_33\n      jump\t// in\n    tag_34:\n      dup1\n      iszero\n      tag_35\n      jumpi\n      dup1\n      0x1f\n      lt\n      tag_36\n      jumpi\n      0x0100\n      dup1\n      dup4\n      sload\n      div\n      mul\n      dup4\n      mstore\n      swap2\n      0x20\n      add\n      swap2\n      jump(tag_35)\n    tag_36:\n      dup3\n      add\n      swap2\n      swap1\n      0x00\n      mstore\n      keccak256(0x00, 0x20)\n      swap1\n    tag_37:\n      dup2\n      sload\n      dup2\n      mstore\n      swap1\n      0x01\n      add\n      swap1\n      0x20\n      add\n      dup1\n      dup4\n      gt\n      tag_37\n      jumpi\n      dup3\n      swap1\n      sub\n      0x1f\n      and\n      dup3\n      add\n      swap2\n    tag_35:\n      pop\n      pop\n      pop\n      pop\n      pop\n      swap1\n      pop\n      dup3\n      jump\t// out\n        /* \"addFiveStorage.sol\":286:383  function store(uint256 _newNumber) public override {... */\n    tag_22:\n        /* \"addFiveStorage.sol\":374:375  5 */\n      0x05\n        /* \"addFiveStorage.sol\":361:371  _newNumber */\n      dup2\n        /* \"addFiveStorage.sol\":361:375  _newNumber + 5 */\n      tag_39\n      swap2\n      swap1\n      tag_40\n      jump\t// in\n    tag_39:\n        /* \"addFiveStorage.sol\":350:358  myFavNum */\n      0x00\n        /* \"addFiveStorage.sol\":350:375  myFavNum = _newNumber + 5 */\n      dup2\n      swap1\n      sstore\n      pop\n        /* \"addFiveStorage.sol\":286:383  function store(uint256 _newNumber) public override {... */\n      pop\n      jump\t// out\n        /* \"simpleStorage.sol\":1763:1996  function getFavNum() public view returns (uint256){... */\n    tag_24:\n        /* \"simpleStorage.sol\":1805:1812  uint256 */\n      0x00\n        /* \"simpleStorage.sol\":1970:1978  myFavNum */\n      sload(0x00)\n        /* \"simpleStorage.sol\":1963:1978  return myFavNum */\n      swap1\n      pop\n        /* \"simpleStorage.sol\":1763:1996  function getFavNum() public view returns (uint256){... */\n      swap1\n      jump\t// out\n        /* \"simpleStorage.sol\":2344:2498  function addPerson(uint256 _age, string memory _name) public{... */\n    tag_29:\n        /* \"simpleStorage.sol\":2417:2429  listOfPeople */\n      0x01\n        /* \"simpleStorage.sol\":2435:2454  Person(_age, _name) */\n      mload(0x40)\n      dup1\n      0x40\n      add\n      0x40\n      mstore\n      dup1\n        /* \"simpleStorage.sol\":2442:2446  _age */\n      dup5\n        /* \"simpleStorage.sol\":2435:2454  Person(_age, _name) */\n      dup2\n      mstore\n      0x20\n      add\n        /* \"simpleStorage.sol\":2448:2453  _name */\n      dup4\n        /* \"simpleStorage.sol\":2435:2454  Person(_age, _name) */\n      dup2\n      mstore\n      pop\n        /* \"simpleStorage.sol\":2417:2455  listOfPeople.push(Person(_age, _name)) */\n      swap1\n      dup1\n      0x01\n      dup2\n      sload\n      add\n      dup1\n      dup3\n      sstore\n      dup1\n      swap2\n      pop\n      pop\n      0x01\n      swap1\n      sub\n      swap1\n      0x00\n      mstore\n      keccak256(0x00, 0x20)\n      swap1\n      0x02\n      mul\n      add\n      0x00\n      swap1\n      swap2\n      swap1\n      swap2\n      swap1\n      swap2\n      pop\n      0x00\n      dup3\n      add\n      mload\n      dup2\n      0x00\n      add\n      sstore\n      0x20\n      dup3\n      add\n      mload\n      dup2\n      0x01\n      add\n      swap1\n      dup2\n      tag_44\n      swap2\n      swap1\n      tag_45\n      jump\t// in\n    tag_44:\n      pop\n      pop\n      pop\n        /* \"simpleStorage.sol\":2486:2490  _age */\n      dup2\n        /* \"simpleStorage.sol\":2466:2476  dictPerson */\n      0x02\n        /* \"simpleStorage.sol\":2477:2482  _name */\n      dup3\n        /* \"simpleStorage.sol\":2466:2483  dictPerson[_name] */\n      mload(0x40)\n      tag_46\n      swap2\n      swap1\n      tag_47\n      jump\t// in\n    tag_46:\n      swap1\n      dup2\n      mstore\n      0x20\n      add\n      mload(0x40)\n      dup1\n      swap2\n      sub\n      swap1\n      keccak256\n        /* \"simpleStorage.sol\":2466:2490  dictPerson[_name] = _age */\n      dup2\n      swap1\n      sstore\n      pop\n        /* \"simpleStorage.sol\":2344:2498  function addPerson(uint256 _age, string memory _name) public{... */\n      pop\n      pop\n      jump\t// out\n        /* \"#utility.yul\":7:82   */\n    tag_48:\n        /* \"#utility.yul\":40:46   */\n      0x00\n        /* \"#utility.yul\":73:75   */\n      0x40\n        /* \"#utility.yul\":67:76   */\n      mload\n        /* \"#utility.yul\":57:76   */\n      swap1\n      pop\n        /* \"#utility.yul\":7:82   */\n      swap1\n      jump\t// out\n        /* \"#utility.yul\":88:205   */\n    tag_49:\n        /* \"#utility.yul\":197:198   */\n      0x00\n        /* \"#utility.yul\":194:195   */\n      0x00\n        /* \"#utility.yul\":187:199   */\n      revert\n        /* \"#utility.yul\":211:328   */\n    tag_50:\n        /* \"#utility.yul\":320:321   */\n      0x00\n        /* \"#utility.yul\":317:318   */\n      0x00\n        /* \"#utility.yul\":310:322   */\n      revert\n        /* \"#utility.yul\":334:451   */\n    tag_51:\n        /* \"#utility.yul\":443:444   */\n      0x00\n        /* \"#utility.yul\":440:441   */\n      0x00\n        /* \"#utility.yul\":433:445   */\n      revert\n        /* \"#utility.yul\":457:574   */\n    tag_52:\n        /* \"#utility.yul\":566:567   */\n      0x00\n        /* \"#utility.yul\":563:564   */\n      0x00\n        /* \"#utility.yul\":556:568   */\n      revert\n        /* \"#utility.yul\":580:682   */\n    tag_53:\n        /* \"#utility.yul\":621:627   */\n      0x00\n        /* \"#utility.yul\":672:674   */\n      0x1f\n        /* \"#utility.yul\":668:675   */\n      not\n        /* \"#utility.yul\":663:665   */\n      0x1f\n        /* \"#utility.yul\":656:661   */\n      dup4\n        /* \"#utility.yul\":652:666   */\n      add\n        /* \"#utility.yul\":648:676   */\n      and\n        /* \"#utility.yul\":638:676   */\n      swap1\n      pop\n        /* \"#utility.yul\":580:682   */\n      swap2\n      swap1\n      pop\n      jump\t// out\n        /* \"#utility.yul\":688:868   */\n    tag_54:\n        /* \"#utility.yul\":736:813   */\n      0x4e487b7100000000000000000000000000000000000000000000000000000000\n        /* \"#utility.yul\":733:734   */\n      0x00\n        /* \"#utility.yul\":726:814   */\n      mstore\n        /* \"#utility.yul\":833:837   */\n      0x41\n        /* \"#utility.yul\":830:831   */\n      0x04\n        /* \"#utility.yul\":823:838   */\n      mstore\n        /* \"#utility.yul\":857:861   */\n      0x24\n        /* \"#utility.yul\":854:855   */\n      0x00\n        /* \"#utility.yul\":847:862   */\n      revert\n        /* \"#utility.yul\":874:1155   */\n    tag_55:\n        /* \"#utility.yul\":957:984   */\n      tag_97\n        /* \"#utility.yul\":979:983   */\n      dup3\n        /* \"#utility.yul\":957:984   */\n      tag_53\n      jump\t// in\n    tag_97:\n        /* \"#utility.yul\":949:955   */\n      dup2\n        /* \"#utility.yul\":945:985   */\n      add\n        /* \"#utility.yul\":1087:1093   */\n      dup2\n        /* \"#utility.yul\":1075:1085   */\n      dup2\n        /* \"#utility.yul\":1072:1094   */\n      lt\n        /* \"#utility.yul\":1051:1069   */\n      0xffffffffffffffff\n        /* \"#utility.yul\":1039:1049   */\n      dup3\n        /* \"#utility.yul\":1036:1070   */\n      gt\n        /* \"#utility.yul\":1033:1095   */\n      or\n        /* \"#utility.yul\":1030:1118   */\n      iszero\n      tag_98\n      jumpi\n        /* \"#utility.yul\":1098:1116   */\n      tag_99\n      tag_54\n      jump\t// in\n    tag_99:\n        /* \"#utility.yul\":1030:1118   */\n    tag_98:\n        /* \"#utility.yul\":1138:1148   */\n      dup1\n        /* \"#utility.yul\":1134:1136   */\n      0x40\n        /* \"#utility.yul\":1127:1149   */\n      mstore\n        /* \"#utility.yul\":917:1155   */\n      pop\n        /* \"#utility.yul\":874:1155   */\n      pop\n      pop\n      jump\t// out\n        /* \"#utility.yul\":1161:1290   */\n    tag_56:\n        /* \"#utility.yul\":1195:1201   */\n      0x00\n        /* \"#utility.yul\":1222:1242   */\n      tag_101\n      tag_48\n      jump\t// in\n    tag_101:\n        /* \"#utility.yul\":1212:1242   */\n      swap1\n      pop\n        /* \"#utility.yul\":1251:1284   */\n      tag_102\n        /* \"#utility.yul\":1279:1283   */\n      dup3\n        /* \"#utility.yul\":1271:1277   */\n      dup3\n        /* \"#utility.yul\":1251:1284   */\n      tag_55\n      jump\t// in\n    tag_102:\n        /* \"#utility.yul\":1161:1290   */\n      swap2\n      swap1\n      pop\n      jump\t// out\n        /* \"#utility.yul\":1296:1604   */\n    tag_57:\n        /* \"#utility.yul\":1358:1362   */\n      0x00\n        /* \"#utility.yul\":1448:1466   */\n      0xffffffffffffffff\n        /* \"#utility.yul\":1440:1446   */\n      dup3\n        /* \"#utility.yul\":1437:1467   */\n      gt\n        /* \"#utility.yul\":1434:1490   */\n      iszero\n      tag_104\n      jumpi\n        /* \"#utility.yul\":1470:1488   */\n      tag_105\n      tag_54\n      jump\t// in\n    tag_105:\n        /* \"#utility.yul\":1434:1490   */\n    tag_104:\n        /* \"#utility.yul\":1508:1537   */\n      tag_106\n        /* \"#utility.yul\":1530:1536   */\n      dup3\n        /* \"#utility.yul\":1508:1537   */\n      tag_53\n      jump\t// in\n    tag_106:\n        /* \"#utility.yul\":1500:1537   */\n      swap1\n      pop\n        /* \"#utility.yul\":1592:1596   */\n      0x20\n        /* \"#utility.yul\":1586:1590   */\n      dup2\n        /* \"#utility.yul\":1582:1597   */\n      add\n        /* \"#utility.yul\":1574:1597   */\n      swap1\n      pop\n        /* \"#utility.yul\":1296:1604   */\n      swap2\n      swap1\n      pop\n      jump\t// out\n        /* \"#utility.yul\":1610:1758   */\n    tag_58:\n        /* \"#utility.yul\":1708:1714   */\n      dup3\n        /* \"#utility.yul\":1703:1706   */\n      dup2\n        /* \"#utility.yul\":1698:1701   */\n      dup4\n        /* \"#utility.yul\":1685:1715   */\n      calldatacopy\n        /* \"#utility.yul\":1749:1750   */\n      0x00\n        /* \"#utility.yul\":1740:1746   */\n      dup4\n        /* \"#utility.yul\":1735:1738   */\n      dup4\n        /* \"#utility.yul\":1731:1747   */\n      add\n        /* \"#utility.yul\":1724:1751   */\n      mstore\n        /* \"#utility.yul\":1610:1758   */\n      pop\n      pop\n      pop\n      jump\t// out\n        /* \"#utility.yul\":1764:2189   */\n    tag_59:\n        /* \"#utility.yul\":1842:1847   */\n      0x00\n        /* \"#utility.yul\":1867:1933   */\n      tag_109\n        /* \"#utility.yul\":1883:1932   */\n      tag_110\n        /* \"#utility.yul\":1925:1931   */\n      dup5\n        /* \"#utility.yul\":1883:1932   */\n      tag_57\n      jump\t// in\n    tag_110:\n        /* \"#utility.yul\":1867:1933   */\n      tag_56\n      jump\t// in\n    tag_109:\n        /* \"#utility.yul\":1858:1933   */\n      swap1\n      pop\n        /* \"#utility.yul\":1956:1962   */\n      dup3\n        /* \"#utility.yul\":1949:1954   */\n      dup2\n        /* \"#utility.yul\":1942:1963   */\n      mstore\n        /* \"#utility.yul\":1994:1998   */\n      0x20\n        /* \"#utility.yul\":1987:1992   */\n      dup2\n        /* \"#utility.yul\":1983:1999   */\n      add\n        /* \"#utility.yul\":2032:2035   */\n      dup5\n        /* \"#utility.yul\":2023:2029   */\n      dup5\n        /* \"#utility.yul\":2018:2021   */\n      dup5\n        /* \"#utility.yul\":2014:2030   */\n      add\n        /* \"#utility.yul\":2011:2036   */\n      gt\n        /* \"#utility.yul\":2008:2120   */\n      iszero\n      tag_111\n      jumpi\n        /* \"#utility.yul\":2039:2118   */\n      tag_112\n      tag_52\n      jump\t// in\n    tag_112:\n        /* \"#utility.yul\":2008:2120   */\n    tag_111:\n        /* \"#utility.yul\":2129:2183   */\n      tag_113\n        /* \"#utility.yul\":2176:2182   */\n      dup5\n        /* \"#utility.yul\":2171:2174   */\n      dup3\n        /* \"#utility.yul\":2166:2169   */\n      dup6\n        /* \"#utility.yul\":2129:2183   */\n      tag_58\n      jump\t// in\n    tag_113:\n        /* \"#utility.yul\":1848:2189   */\n      pop\n        /* \"#utility.yul\":1764:2189   */\n      swap4\n      swap3\n      pop\n      pop\n      pop\n      jump\t// out\n        /* \"#utility.yul\":2209:2549   */\n    tag_60:\n        /* \"#utility.yul\":2265:2270   */\n      0x00\n        /* \"#utility.yul\":2314:2317   */\n      dup3\n        /* \"#utility.yul\":2307:2311   */\n      0x1f\n        /* \"#utility.yul\":2299:2305   */\n      dup4\n        /* \"#utility.yul\":2295:2312   */\n      add\n        /* \"#utility.yul\":2291:2318   */\n      slt\n        /* \"#utility.yul\":2281:2403   */\n      tag_115\n      jumpi\n        /* \"#utility.yul\":2322:2401   */\n      tag_116\n      tag_51\n      jump\t// in\n    tag_116:\n        /* \"#utility.yul\":2281:2403   */\n    tag_115:\n        /* \"#utility.yul\":2439:2445   */\n      dup2\n        /* \"#utility.yul\":2426:2446   */\n      calldataload\n        /* \"#utility.yul\":2464:2543   */\n      tag_117\n        /* \"#utility.yul\":2539:2542   */\n      dup5\n        /* \"#utility.yul\":2531:2537   */\n      dup3\n        /* \"#utility.yul\":2524:2528   */\n      0x20\n        /* \"#utility.yul\":2516:2522   */\n      dup7\n        /* \"#utility.yul\":2512:2529   */\n      add\n        /* \"#utility.yul\":2464:2543   */\n      tag_59\n      jump\t// in\n    tag_117:\n        /* \"#utility.yul\":2455:2543   */\n      swap2\n      pop\n        /* \"#utility.yul\":2271:2549   */\n      pop\n        /* \"#utility.yul\":2209:2549   */\n      swap3\n      swap2\n      pop\n      pop\n      jump\t// out\n        /* \"#utility.yul\":2555:3064   */\n    tag_10:\n        /* \"#utility.yul\":2624:2630   */\n      0x00\n        /* \"#utility.yul\":2673:2675   */\n      0x20\n        /* \"#utility.yul\":2661:2670   */\n      dup3\n        /* \"#utility.yul\":2652:2659   */\n      dup5\n        /* \"#utility.yul\":2648:2671   */\n      sub\n        /* \"#utility.yul\":2644:2676   */\n      slt\n        /* \"#utility.yul\":2641:2760   */\n      iszero\n      tag_119\n      jumpi\n        /* \"#utility.yul\":2679:2758   */\n      tag_120\n      tag_49\n      jump\t// in\n    tag_120:\n        /* \"#utility.yul\":2641:2760   */\n    tag_119:\n        /* \"#utility.yul\":2827:2828   */\n      0x00\n        /* \"#utility.yul\":2816:2825   */\n      dup3\n        /* \"#utility.yul\":2812:2829   */\n      add\n        /* \"#utility.yul\":2799:2830   */\n      calldataload\n        /* \"#utility.yul\":2857:2875   */\n      0xffffffffffffffff\n        /* \"#utility.yul\":2849:2855   */\n      dup2\n        /* \"#utility.yul\":2846:2876   */\n      gt\n        /* \"#utility.yul\":2843:2960   */\n      iszero\n      tag_121\n      jumpi\n        /* \"#utility.yul\":2879:2958   */\n      tag_122\n      tag_50\n      jump\t// in\n    tag_122:\n        /* \"#utility.yul\":2843:2960   */\n    tag_121:\n        /* \"#utility.yul\":2984:3047   */\n      tag_123\n        /* \"#utility.yul\":3039:3046   */\n      dup5\n        /* \"#utility.yul\":3030:3036   */\n      dup3\n        /* \"#utility.yul\":3019:3028   */\n      dup6\n        /* \"#utility.yul\":3015:3037   */\n      add\n        /* \"#utility.yul\":2984:3047   */\n      tag_60\n      jump\t// in\n    tag_123:\n        /* \"#utility.yul\":2974:3047   */\n      swap2\n      pop\n        /* \"#utility.yul\":2770:3057   */\n      pop\n        /* \"#utility.yul\":2555:3064   */\n      swap3\n      swap2\n      pop\n      pop\n      jump\t// out\n        /* \"#utility.yul\":3070:3147   */\n    tag_61:\n        /* \"#utility.yul\":3107:3114   */\n      0x00\n        /* \"#utility.yul\":3136:3141   */\n      dup2\n        /* \"#utility.yul\":3125:3141   */\n      swap1\n      pop\n        /* \"#utility.yul\":3070:3147   */\n      swap2\n      swap1\n      pop\n      jump\t// out\n        /* \"#utility.yul\":3153:3271   */\n    tag_62:\n        /* \"#utility.yul\":3240:3264   */\n      tag_126\n        /* \"#utility.yul\":3258:3263   */\n      dup2\n        /* \"#utility.yul\":3240:3264   */\n      tag_61\n      jump\t// in\n    tag_126:\n        /* \"#utility.yul\":3235:3238   */\n      dup3\n        /* \"#utility.yul\":3228:3265   */\n      mstore\n        /* \"#utility.yul\":3153:3271   */\n      pop\n      pop\n      jump\t// out\n        /* \"#utility.yul\":3277:3499   */\n    tag_13:\n        /* \"#utility.yul\":3370:3374   */\n      0x00\n        /* \"#utility.yul\":3408:3410   */\n      0x20\n        /* \"#utility.yul\":3397:3406   */\n      dup3\n        /* \"#utility.yul\":3393:3411   */\n      add\n        /* \"#utility.yul\":3385:3411   */\n      swap1\n      pop\n        /* \"#utility.yul\":3421:3492   */\n      tag_128\n        /* \"#utility.yul\":3489:3490   */\n      0x00\n        /* \"#utility.yul\":3478:3487   */\n      dup4\n        /* \"#utility.yul\":3474:3491   */\n      add\n        /* \"#utility.yul\":3465:3471   */\n      dup5\n        /* \"#utility.yul\":3421:3492   */\n      tag_62\n      jump\t// in\n    tag_128:\n        /* \"#utility.yul\":3277:3499   */\n      swap3\n      swap2\n      pop\n      pop\n      jump\t// out\n        /* \"#utility.yul\":3505:3627   */\n    tag_63:\n        /* \"#utility.yul\":3578:3602   */\n      tag_130\n        /* \"#utility.yul\":3596:3601   */\n      dup2\n        /* \"#utility.yul\":3578:3602   */\n      tag_61\n      jump\t// in\n    tag_130:\n        /* \"#utility.yul\":3571:3576   */\n      dup2\n        /* \"#utility.yul\":3568:3603   */\n      eq\n        /* \"#utility.yul\":3558:3621   */\n      tag_131\n      jumpi\n        /* \"#utility.yul\":3617:3618   */\n      0x00\n        /* \"#utility.yul\":3614:3615   */\n      0x00\n        /* \"#utility.yul\":3607:3619   */\n      revert\n        /* \"#utility.yul\":3558:3621   */\n    tag_131:\n        /* \"#utility.yul\":3505:3627   */\n      pop\n      jump\t// out\n        /* \"#utility.yul\":3633:3772   */\n    tag_64:\n        /* \"#utility.yul\":3679:3684   */\n      0x00\n        /* \"#utility.yul\":3717:3723   */\n      dup2\n        /* \"#utility.yul\":3704:3724   */\n      calldataload\n        /* \"#utility.yul\":3695:3724   */\n      swap1\n      pop\n        /* \"#utility.yul\":3733:3766   */\n      tag_133\n        /* \"#utility.yul\":3760:3765   */\n      dup2\n        /* \"#utility.yul\":3733:3766   */\n      tag_63\n      jump\t// in\n    tag_133:\n        /* \"#utility.yul\":3633:3772   */\n      swap3\n      swap2\n      pop\n      pop\n      jump\t// out\n        /* \"#utility.yul\":3778:4107   */\n    tag_16:\n        /* \"#utility.yul\":3837:3843   */\n      0x00\n        /* \"#utility.yul\":3886:3888   */\n      0x20\n        /* \"#utility.yul\":3874:3883   */\n      dup3\n        /* \"#utility.yul\":3865:3872   */\n      dup5\n        /* \"#utility.yul\":3861:3884   */\n      sub\n        /* \"#utility.yul\":3857:3889   */\n      slt\n        /* \"#utility.yul\":3854:3973   */\n      iszero\n      tag_135\n      jumpi\n        /* \"#utility.yul\":3892:3971   */\n      tag_136\n      tag_49\n      jump\t// in\n    tag_136:\n        /* \"#utility.yul\":3854:3973   */\n    tag_135:\n        /* \"#utility.yul\":4012:4013   */\n      0x00\n        /* \"#utility.yul\":4037:4090   */\n      tag_137\n        /* \"#utility.yul\":4082:4089   */\n      dup5\n        /* \"#utility.yul\":4073:4079   */\n      dup3\n        /* \"#utility.yul\":4062:4071   */\n      dup6\n        /* \"#utility.yul\":4058:4080   */\n      add\n        /* \"#utility.yul\":4037:4090   */\n      tag_64\n      jump\t// in\n    tag_137:\n        /* \"#utility.yul\":4027:4090   */\n      swap2\n      pop\n        /* \"#utility.yul\":3983:4100   */\n      pop\n        /* \"#utility.yul\":3778:4107   */\n      swap3\n      swap2\n      pop\n      pop\n      jump\t// out\n        /* \"#utility.yul\":4113:4212   */\n    tag_65:\n        /* \"#utility.yul\":4165:4171   */\n      0x00\n        /* \"#utility.yul\":4199:4204   */\n      dup2\n        /* \"#utility.yul\":4193:4205   */\n      mload\n        /* \"#utility.yul\":4183:4205   */\n      swap1\n      pop\n        /* \"#utility.yul\":4113:4212   */\n      swap2\n      swap1\n      pop\n      jump\t// out\n        /* \"#utility.yul\":4218:4387   */\n    tag_66:\n        /* \"#utility.yul\":4302:4313   */\n      0x00\n        /* \"#utility.yul\":4336:4342   */\n      dup3\n        /* \"#utility.yul\":4331:4334   */\n      dup3\n        /* \"#utility.yul\":4324:4343   */\n      mstore\n        /* \"#utility.yul\":4376:4380   */\n      0x20\n        /* \"#utility.yul\":4371:4374   */\n      dup3\n        /* \"#utility.yul\":4367:4381   */\n      add\n        /* \"#utility.yul\":4352:4381   */\n      swap1\n      pop\n        /* \"#utility.yul\":4218:4387   */\n      swap3\n      swap2\n      pop\n      pop\n      jump\t// out\n        /* \"#utility.yul\":4393:4532   */\n    tag_67:\n        /* \"#utility.yul\":4482:4488   */\n      dup3\n        /* \"#utility.yul\":4477:4480   */\n      dup2\n        /* \"#utility.yul\":4472:4475   */\n      dup4\n        /* \"#utility.yul\":4466:4489   */\n      mcopy\n        /* \"#utility.yul\":4523:4524   */\n      0x00\n        /* \"#utility.yul\":4514:4520   */\n      dup4\n        /* \"#utility.yul\":4509:4512   */\n      dup4\n        /* \"#utility.yul\":4505:4521   */\n      add\n        /* \"#utility.yul\":4498:4525   */\n      mstore\n        /* \"#utility.yul\":4393:4532   */\n      pop\n      pop\n      pop\n      jump\t// out\n        /* \"#utility.yul\":4538:4915   */\n    tag_68:\n        /* \"#utility.yul\":4626:4629   */\n      0x00\n        /* \"#utility.yul\":4654:4693   */\n      tag_142\n        /* \"#utility.yul\":4687:4692   */\n      dup3\n        /* \"#utility.yul\":4654:4693   */\n      tag_65\n      jump\t// in\n    tag_142:\n        /* \"#utility.yul\":4709:4780   */\n      tag_143\n        /* \"#utility.yul\":4773:4779   */\n      dup2\n        /* \"#utility.yul\":4768:4771   */\n      dup6\n        /* \"#utility.yul\":4709:4780   */\n      tag_66\n      jump\t// in\n    tag_143:\n        /* \"#utility.yul\":4702:4780   */\n      swap4\n      pop\n        /* \"#utility.yul\":4789:4854   */\n      tag_144\n        /* \"#utility.yul\":4847:4853   */\n      dup2\n        /* \"#utility.yul\":4842:4845   */\n      dup6\n        /* \"#utility.yul\":4835:4839   */\n      0x20\n        /* \"#utility.yul\":4828:4833   */\n      dup7\n        /* \"#utility.yul\":4824:4840   */\n      add\n        /* \"#utility.yul\":4789:4854   */\n      tag_67\n      jump\t// in\n    tag_144:\n        /* \"#utility.yul\":4879:4908   */\n      tag_145\n        /* \"#utility.yul\":4901:4907   */\n      dup2\n        /* \"#utility.yul\":4879:4908   */\n      tag_53\n      jump\t// in\n    tag_145:\n        /* \"#utility.yul\":4874:4877   */\n      dup5\n        /* \"#utility.yul\":4870:4909   */\n      add\n        /* \"#utility.yul\":4863:4909   */\n      swap2\n      pop\n        /* \"#utility.yul\":4630:4915   */\n      pop\n        /* \"#utility.yul\":4538:4915   */\n      swap3\n      swap2\n      pop\n      pop\n      jump\t// out\n        /* \"#utility.yul\":4921:5344   */\n    tag_19:\n        /* \"#utility.yul\":5062:5066   */\n      0x00\n        /* \"#utility.yul\":5100:5102   */\n      0x40\n        /* \"#utility.yul\":5089:5098   */\n      dup3\n        /* \"#utility.yul\":5085:5103   */\n      add\n        /* \"#utility.yul\":5077:5103   */\n      swap1\n      pop\n        /* \"#utility.yul\":5113:5184   */\n      tag_147\n        /* \"#utility.yul\":5181:5182   */\n      0x00\n        /* \"#utility.yul\":5170:5179   */\n      dup4\n        /* \"#utility.yul\":5166:5183   */\n      add\n        /* \"#utility.yul\":5157:5163   */\n      dup6\n        /* \"#utility.yul\":5113:5184   */\n      tag_62\n      jump\t// in\n    tag_147:\n        /* \"#utility.yul\":5231:5240   */\n      dup2\n        /* \"#utility.yul\":5225:5229   */\n      dup2\n        /* \"#utility.yul\":5221:5241   */\n      sub\n        /* \"#utility.yul\":5216:5218   */\n      0x20\n        /* \"#utility.yul\":5205:5214   */\n      dup4\n        /* \"#utility.yul\":5201:5219   */\n      add\n        /* \"#utility.yul\":5194:5242   */\n      mstore\n        /* \"#utility.yul\":5259:5337   */\n      tag_148\n        /* \"#utility.yul\":5332:5336   */\n      dup2\n        /* \"#utility.yul\":5323:5329   */\n      dup5\n        /* \"#utility.yul\":5259:5337   */\n      tag_68\n      jump\t// in\n    tag_148:\n        /* \"#utility.yul\":5251:5337   */\n      swap1\n      pop\n        /* \"#utility.yul\":4921:5344   */\n      swap4\n      swap3\n      pop\n      pop\n      pop\n      jump\t// out\n        /* \"#utility.yul\":5350:6004   */\n    tag_28:\n        /* \"#utility.yul\":5428:5434   */\n      0x00\n        /* \"#utility.yul\":5436:5442   */\n      0x00\n        /* \"#utility.yul\":5485:5487   */\n      0x40\n        /* \"#utility.yul\":5473:5482   */\n      dup4\n        /* \"#utility.yul\":5464:5471   */\n      dup6\n        /* \"#utility.yul\":5460:5483   */\n      sub\n        /* \"#utility.yul\":5456:5488   */\n      slt\n        /* \"#utility.yul\":5453:5572   */\n      iszero\n      tag_150\n      jumpi\n        /* \"#utility.yul\":5491:5570   */\n      tag_151\n      tag_49\n      jump\t// in\n    tag_151:\n        /* \"#utility.yul\":5453:5572   */\n    tag_150:\n        /* \"#utility.yul\":5611:5612   */\n      0x00\n        /* \"#utility.yul\":5636:5689   */\n      tag_152\n        /* \"#utility.yul\":5681:5688   */\n      dup6\n        /* \"#utility.yul\":5672:5678   */\n      dup3\n        /* \"#utility.yul\":5661:5670   */\n      dup7\n        /* \"#utility.yul\":5657:5679   */\n      add\n        /* \"#utility.yul\":5636:5689   */\n      tag_64\n      jump\t// in\n    tag_152:\n        /* \"#utility.yul\":5626:5689   */\n      swap3\n      pop\n        /* \"#utility.yul\":5582:5699   */\n      pop\n        /* \"#utility.yul\":5766:5768   */\n      0x20\n        /* \"#utility.yul\":5755:5764   */\n      dup4\n        /* \"#utility.yul\":5751:5769   */\n      add\n        /* \"#utility.yul\":5738:5770   */\n      calldataload\n        /* \"#utility.yul\":5797:5815   */\n      0xffffffffffffffff\n        /* \"#utility.yul\":5789:5795   */\n      dup2\n        /* \"#utility.yul\":5786:5816   */\n      gt\n        /* \"#utility.yul\":5783:5900   */\n      iszero\n      tag_153\n      jumpi\n        /* \"#utility.yul\":5819:5898   */\n      tag_154\n      tag_50\n      jump\t// in\n    tag_154:\n        /* \"#utility.yul\":5783:5900   */\n    tag_153:\n        /* \"#utility.yul\":5924:5987   */\n      tag_155\n        /* \"#utility.yul\":5979:5986   */\n      dup6\n        /* \"#utility.yul\":5970:5976   */\n      dup3\n        /* \"#utility.yul\":5959:5968   */\n      dup7\n        /* \"#utility.yul\":5955:5977   */\n      add\n        /* \"#utility.yul\":5924:5987   */\n      tag_60\n      jump\t// in\n    tag_155:\n        /* \"#utility.yul\":5914:5987   */\n      swap2\n      pop\n        /* \"#utility.yul\":5709:5997   */\n      pop\n        /* \"#utility.yul\":5350:6004   */\n      swap3\n      pop\n      swap3\n      swap1\n      pop\n      jump\t// out\n        /* \"#utility.yul\":6010:6190   */\n    tag_69:\n        /* \"#utility.yul\":6058:6135   */\n      0x4e487b7100000000000000000000000000000000000000000000000000000000\n        /* \"#utility.yul\":6055:6056   */\n      0x00\n        /* \"#utility.yul\":6048:6136   */\n      mstore\n        /* \"#utility.yul\":6155:6159   */\n      0x22\n        /* \"#utility.yul\":6152:6153   */\n      0x04\n        /* \"#utility.yul\":6145:6160   */\n      mstore\n        /* \"#utility.yul\":6179:6183   */\n      0x24\n        /* \"#utility.yul\":6176:6177   */\n      0x00\n        /* \"#utility.yul\":6169:6184   */\n      revert\n        /* \"#utility.yul\":6196:6516   */\n    tag_33:\n        /* \"#utility.yul\":6240:6246   */\n      0x00\n        /* \"#utility.yul\":6277:6278   */\n      0x02\n        /* \"#utility.yul\":6271:6275   */\n      dup3\n        /* \"#utility.yul\":6267:6279   */\n      div\n        /* \"#utility.yul\":6257:6279   */\n      swap1\n      pop\n        /* \"#utility.yul\":6324:6325   */\n      0x01\n        /* \"#utility.yul\":6318:6322   */\n      dup3\n        /* \"#utility.yul\":6314:6326   */\n      and\n        /* \"#utility.yul\":6345:6363   */\n      dup1\n        /* \"#utility.yul\":6335:6416   */\n      tag_158\n      jumpi\n        /* \"#utility.yul\":6401:6405   */\n      0x7f\n        /* \"#utility.yul\":6393:6399   */\n      dup3\n        /* \"#utility.yul\":6389:6406   */\n      and\n        /* \"#utility.yul\":6379:6406   */\n      swap2\n      pop\n        /* \"#utility.yul\":6335:6416   */\n    tag_158:\n        /* \"#utility.yul\":6463:6465   */\n      0x20\n        /* \"#utility.yul\":6455:6461   */\n      dup3\n        /* \"#utility.yul\":6452:6466   */\n      lt\n        /* \"#utility.yul\":6432:6450   */\n      dup2\n        /* \"#utility.yul\":6429:6467   */\n      sub\n        /* \"#utility.yul\":6426:6510   */\n      tag_159\n      jumpi\n        /* \"#utility.yul\":6482:6500   */\n      tag_160\n      tag_69\n      jump\t// in\n    tag_160:\n        /* \"#utility.yul\":6426:6510   */\n    tag_159:\n        /* \"#utility.yul\":6247:6516   */\n      pop\n        /* \"#utility.yul\":6196:6516   */\n      swap2\n      swap1\n      pop\n      jump\t// out\n        /* \"#utility.yul\":6522:6702   */\n    tag_70:\n        /* \"#utility.yul\":6570:6647   */\n      0x4e487b7100000000000000000000000000000000000000000000000000000000\n        /* \"#utility.yul\":6567:6568   */\n      0x00\n        /* \"#utility.yul\":6560:6648   */\n      mstore\n        /* \"#utility.yul\":6667:6671   */\n      0x11\n        /* \"#utility.yul\":6664:6665   */\n      0x04\n        /* \"#utility.yul\":6657:6672   */\n      mstore\n        /* \"#utility.yul\":6691:6695   */\n      0x24\n        /* \"#utility.yul\":6688:6689   */\n      0x00\n        /* \"#utility.yul\":6681:6696   */\n      revert\n        /* \"#utility.yul\":6708:6899   */\n    tag_40:\n        /* \"#utility.yul\":6748:6751   */\n      0x00\n        /* \"#utility.yul\":6767:6787   */\n      tag_163\n        /* \"#utility.yul\":6785:6786   */\n      dup3\n        /* \"#utility.yul\":6767:6787   */\n      tag_61\n      jump\t// in\n    tag_163:\n        /* \"#utility.yul\":6762:6787   */\n      swap2\n      pop\n        /* \"#utility.yul\":6801:6821   */\n      tag_164\n        /* \"#utility.yul\":6819:6820   */\n      dup4\n        /* \"#utility.yul\":6801:6821   */\n      tag_61\n      jump\t// in\n    tag_164:\n        /* \"#utility.yul\":6796:6821   */\n      swap3\n      pop\n        /* \"#utility.yul\":6844:6845   */\n      dup3\n        /* \"#utility.yul\":6841:6842   */\n      dup3\n        /* \"#utility.yul\":6837:6846   */\n      add\n        /* \"#utility.yul\":6830:6846   */\n      swap1\n      pop\n        /* \"#utility.yul\":6865:6868   */\n      dup1\n        /* \"#utility.yul\":6862:6863   */\n      dup3\n        /* \"#utility.yul\":6859:6869   */\n      gt\n        /* \"#utility.yul\":6856:6892   */\n      iszero\n      tag_165\n      jumpi\n        /* \"#utility.yul\":6872:6890   */\n      tag_166\n      tag_70\n      jump\t// in\n    tag_166:\n        /* \"#utility.yul\":6856:6892   */\n    tag_165:\n        /* \"#utility.yul\":6708:6899   */\n      swap3\n      swap2\n      pop\n      pop\n      jump\t// out\n        /* \"#utility.yul\":6905:7046   */\n    tag_71:\n        /* \"#utility.yul\":6954:6958   */\n      0x00\n        /* \"#utility.yul\":6977:6980   */\n      dup2\n        /* \"#utility.yul\":6969:6980   */\n      swap1\n      pop\n        /* \"#utility.yul\":7000:7003   */\n      dup2\n        /* \"#utility.yul\":6997:6998   */\n      0x00\n        /* \"#utility.yul\":6990:7004   */\n      mstore\n        /* \"#utility.yul\":7034:7038   */\n      0x20\n        /* \"#utility.yul\":7031:7032   */\n      0x00\n        /* \"#utility.yul\":7021:7039   */\n      keccak256\n        /* \"#utility.yul\":7013:7039   */\n      swap1\n      pop\n        /* \"#utility.yul\":6905:7046   */\n      swap2\n      swap1\n      pop\n      jump\t// out\n        /* \"#utility.yul\":7052:7145   */\n    tag_72:\n        /* \"#utility.yul\":7089:7095   */\n      0x00\n        /* \"#utility.yul\":7136:7138   */\n      0x20\n        /* \"#utility.yul\":7131:7133   */\n      0x1f\n        /* \"#utility.yul\":7124:7129   */\n      dup4\n        /* \"#utility.yul\":7120:7134   */\n      add\n        /* \"#utility.yul\":7116:7139   */\n      div\n        /* \"#utility.yul\":7106:7139   */\n      swap1\n      pop\n        /* \"#utility.yul\":7052:7145   */\n      swap2\n      swap1\n      pop\n      jump\t// out\n        /* \"#utility.yul\":7151:7258   */\n    tag_73:\n        /* \"#utility.yul\":7195:7203   */\n      0x00\n        /* \"#utility.yul\":7245:7250   */\n      dup3\n        /* \"#utility.yul\":7239:7243   */\n      dup3\n        /* \"#utility.yul\":7235:7251   */\n      shl\n        /* \"#utility.yul\":7214:7251   */\n      swap1\n      pop\n        /* \"#utility.yul\":7151:7258   */\n      swap3\n      swap2\n      pop\n      pop\n      jump\t// out\n        /* \"#utility.yul\":7264:7657   */\n    tag_74:\n        /* \"#utility.yul\":7333:7339   */\n      0x00\n        /* \"#utility.yul\":7383:7384   */\n      0x08\n        /* \"#utility.yul\":7371:7381   */\n      dup4\n        /* \"#utility.yul\":7367:7385   */\n      mul\n        /* \"#utility.yul\":7406:7503   */\n      tag_171\n        /* \"#utility.yul\":7436:7502   */\n      0xffffffffffffffffffffffffffffffffffffffffffffffffffffffffffffffff\n        /* \"#utility.yul\":7425:7434   */\n      dup3\n        /* \"#utility.yul\":7406:7503   */\n      tag_73\n      jump\t// in\n    tag_171:\n        /* \"#utility.yul\":7524:7563   */\n      tag_172\n        /* \"#utility.yul\":7554:7562   */\n      dup7\n        /* \"#utility.yul\":7543:7552   */\n      dup4\n        /* \"#utility.yul\":7524:7563   */\n      tag_73\n      jump\t// in\n    tag_172:\n        /* \"#utility.yul\":7512:7563   */\n      swap6\n      pop\n        /* \"#utility.yul\":7596:7600   */\n      dup1\n        /* \"#utility.yul\":7592:7601   */\n      not\n        /* \"#utility.yul\":7585:7590   */\n      dup5\n        /* \"#utility.yul\":7581:7602   */\n      and\n        /* \"#utility.yul\":7572:7602   */\n      swap4\n      pop\n        /* \"#utility.yul\":7645:7649   */\n      dup1\n        /* \"#utility.yul\":7635:7643   */\n      dup7\n        /* \"#utility.yul\":7631:7650   */\n      and\n        /* \"#utility.yul\":7624:7629   */\n      dup5\n        /* \"#utility.yul\":7621:7651   */\n      or\n        /* \"#utility.yul\":7611:7651   */\n      swap3\n      pop\n        /* \"#utility.yul\":7340:7657   */\n      pop\n      pop\n        /* \"#utility.yul\":7264:7657   */\n      swap4\n      swap3\n      pop\n      pop\n      pop\n      jump\t// out\n        /* \"#utility.yul\":7663:7723   */\n    tag_75:\n        /* \"#utility.yul\":7691:7694   */\n      0x00\n        /* \"#utility.yul\":7712:7717   */\n      dup2\n        /* \"#utility.yul\":7705:7717   */\n      swap1\n      pop\n        /* \"#utility.yul\":7663:7723   */\n      swap2\n      swap1\n      pop\n      jump\t// out\n        /* \"#utility.yul\":7729:7871   */\n    tag_76:\n        /* \"#utility.yul\":7779:7788   */\n      0x00\n        /* \"#utility.yul\":7812:7865   */\n      tag_175\n        /* \"#utility.yul\":7830:7864   */\n      tag_176\n        /* \"#utility.yul\":7839:7863   */\n      tag_177\n        /* \"#utility.yul\":7857:7862   */\n      dup5\n        /* \"#utility.yul\":7839:7863   */\n      tag_61\n      jump\t// in\n    tag_177:\n        /* \"#utility.yul\":7830:7864   */\n      tag_75\n      jump\t// in\n    tag_176:\n        /* \"#utility.yul\":7812:7865   */\n      tag_61\n      jump\t// in\n    tag_175:\n        /* \"#utility.yul\":7799:7865   */\n      swap1\n      pop\n        /* \"#utility.yul\":7729:7871   */\n      swap2\n      swap1\n      pop\n      jump\t// out\n        /* \"#utility.yul\":7877:7952   */\n    tag_77:\n        /* \"#utility.yul\":7920:7923   */\n      0x00\n        /* \"#utility.yul\":7941:7946   */\n      dup2\n        /* \"#utility.yul\":7934:7946   */\n      swap1\n      pop\n        /* \"#utility.yul\":7877:7952   */\n      swap2\n      swap1\n      pop\n      jump\t// out\n        /* \"#utility.yul\":7958:8227   */\n    tag_78:\n        /* \"#utility.yul\":8068:8107   */\n      tag_180\n        /* \"#utility.yul\":8099:8106   */\n      dup4\n        /* \"#utility.yul\":8068:8107   */\n      tag_76\n      jump\t// in\n    tag_180:\n        /* \"#utility.yul\":8129:8220   */\n      tag_181\n        /* \"#utility.yul\":8178:8219   */\n      tag_182\n        /* \"#utility.yul\":8202:8218   */\n      dup3\n        /* \"#utility.yul\":8178:8219   */\n      tag_77\n      jump\t// in\n    tag_182:\n        /* \"#utility.yul\":8170:8176   */\n      dup5\n        /* \"#utility.yul\":8163:8167   */\n      dup5\n        /* \"#utility.yul\":8157:8168   */\n      sload\n        /* \"#utility.yul\":8129:8220   */\n      tag_74\n      jump\t// in\n    tag_181:\n        /* \"#utility.yul\":8123:8127   */\n      dup3\n        /* \"#utility.yul\":8116:8221   */\n      sstore\n        /* \"#utility.yul\":8034:8227   */\n      pop\n        /* \"#utility.yul\":7958:8227   */\n      pop\n      pop\n      pop\n      jump\t// out\n        /* \"#utility.yul\":8233:8306   */\n    tag_79:\n        /* \"#utility.yul\":8278:8281   */\n      0x00\n        /* \"#utility.yul\":8299:8300   */\n      0x00\n        /* \"#utility.yul\":8292:8300   */\n      swap1\n      pop\n        /* \"#utility.yul\":8233:8306   */\n      swap1\n      jump\t// out\n        /* \"#utility.yul\":8312:8501   */\n    tag_80:\n        /* \"#utility.yul\":8389:8421   */\n      tag_185\n      tag_79\n      jump\t// in\n    tag_185:\n        /* \"#utility.yul\":8430:8495   */\n      tag_186\n        /* \"#utility.yul\":8488:8494   */\n      dup2\n        /* \"#utility.yul\":8480:8486   */\n      dup5\n        /* \"#utility.yul\":8474:8478   */\n      dup5\n        /* \"#utility.yul\":8430:8495   */\n      tag_78\n      jump\t// in\n    tag_186:\n        /* \"#utility.yul\":8365:8501   */\n      pop\n        /* \"#utility.yul\":8312:8501   */\n      pop\n      pop\n      jump\t// out\n        /* \"#utility.yul\":8507:8693   */\n    tag_81:\n        /* \"#utility.yul\":8567:8687   */\n    tag_188:\n        /* \"#utility.yul\":8584:8587   */\n      dup2\n        /* \"#utility.yul\":8577:8582   */\n      dup2\n        /* \"#utility.yul\":8574:8588   */\n      lt\n        /* \"#utility.yul\":8567:8687   */\n      iszero\n      tag_190\n      jumpi\n        /* \"#utility.yul\":8638:8677   */\n      tag_191\n        /* \"#utility.yul\":8675:8676   */\n      0x00\n        /* \"#utility.yul\":8668:8673   */\n      dup3\n        /* \"#utility.yul\":8638:8677   */\n      tag_80\n      jump\t// in\n    tag_191:\n        /* \"#utility.yul\":8611:8612   */\n      0x01\n        /* \"#utility.yul\":8604:8609   */\n      dup2\n        /* \"#utility.yul\":8600:8613   */\n      add\n        /* \"#utility.yul\":8591:8613   */\n      swap1\n      pop\n        /* \"#utility.yul\":8567:8687   */\n      jump(tag_188)\n    tag_190:\n        /* \"#utility.yul\":8507:8693   */\n      pop\n      pop\n      jump\t// out\n        /* \"#utility.yul\":8699:9242   */\n    tag_82:\n        /* \"#utility.yul\":8800:8802   */\n      0x1f\n        /* \"#utility.yul\":8795:8798   */\n      dup3\n        /* \"#utility.yul\":8792:8803   */\n      gt\n        /* \"#utility.yul\":8789:9235   */\n      iszero\n      tag_193\n      jumpi\n        /* \"#utility.yul\":8834:8872   */\n      tag_194\n        /* \"#utility.yul\":8866:8871   */\n      dup2\n        /* \"#utility.yul\":8834:8872   */\n      tag_71\n      jump\t// in\n    tag_194:\n        /* \"#utility.yul\":8918:8947   */\n      tag_195\n        /* \"#utility.yul\":8936:8946   */\n      dup5\n        /* \"#utility.yul\":8918:8947   */\n      tag_72\n      jump\t// in\n    tag_195:\n        /* \"#utility.yul\":8908:8916   */\n      dup2\n        /* \"#utility.yul\":8904:8948   */\n      add\n        /* \"#utility.yul\":9101:9103   */\n      0x20\n        /* \"#utility.yul\":9089:9099   */\n      dup6\n        /* \"#utility.yul\":9086:9104   */\n      lt\n        /* \"#utility.yul\":9083:9132   */\n      iszero\n      tag_196\n      jumpi\n        /* \"#utility.yul\":9122:9130   */\n      dup2\n        /* \"#utility.yul\":9107:9130   */\n      swap1\n      pop\n        /* \"#utility.yul\":9083:9132   */\n    tag_196:\n        /* \"#utility.yul\":9145:9225   */\n      tag_197\n        /* \"#utility.yul\":9201:9223   */\n      tag_198\n        /* \"#utility.yul\":9219:9222   */\n      dup6\n        /* \"#utility.yul\":9201:9223   */\n      tag_72\n      jump\t// in\n    tag_198:\n        /* \"#utility.yul\":9191:9199   */\n      dup4\n        /* \"#utility.yul\":9187:9224   */\n      add\n        /* \"#utility.yul\":9174:9185   */\n      dup3\n        /* \"#utility.yul\":9145:9225   */\n      tag_81\n      jump\t// in\n    tag_197:\n        /* \"#utility.yul\":8804:9235   */\n      pop\n      pop\n        /* \"#utility.yul\":8789:9235   */\n    tag_193:\n        /* \"#utility.yul\":8699:9242   */\n      pop\n      pop\n      pop\n      jump\t// out\n        /* \"#utility.yul\":9248:9365   */\n    tag_83:\n        /* \"#utility.yul\":9302:9310   */\n      0x00\n        /* \"#utility.yul\":9352:9357   */\n      dup3\n        /* \"#utility.yul\":9346:9350   */\n      dup3\n        /* \"#utility.yul\":9342:9358   */\n      shr\n        /* \"#utility.yul\":9321:9358   */\n      swap1\n      pop\n        /* \"#utility.yul\":9248:9365   */\n      swap3\n      swap2\n      pop\n      pop\n      jump\t// out\n        /* \"#utility.yul\":9371:9540   */\n    tag_84:\n        /* \"#utility.yul\":9415:9421   */\n      0x00\n        /* \"#utility.yul\":9448:9499   */\n      tag_201\n        /* \"#utility.yul\":9496:9497   */\n      0x00\n        /* \"#utility.yul\":9492:9498   */\n      not\n        /* \"#utility.yul\":9484:9489   */\n      dup5\n        /* \"#utility.yul\":9481:9482   */\n      0x08\n        /* \"#utility.yul\":9477:9490   */\n      mul\n        /* \"#utility.yul\":9448:9499   */\n      tag_83\n      jump\t// in\n    tag_201:\n        /* \"#utility.yul\":9444:9500   */\n      not\n        /* \"#utility.yul\":9529:9533   */\n      dup1\n        /* \"#utility.yul\":9523:9527   */\n      dup4\n        /* \"#utility.yul\":9519:9534   */\n      and\n        /* \"#utility.yul\":9509:9534   */\n      swap2\n      pop\n        /* \"#utility.yul\":9422:9540   */\n      pop\n        /* \"#utility.yul\":9371:9540   */\n      swap3\n      swap2\n      pop\n      pop\n      jump\t// out\n        /* \"#utility.yul\":9545:9840   */\n    tag_85:\n        /* \"#utility.yul\":9621:9625   */\n      0x00\n        /* \"#utility.yul\":9767:9796   */\n      tag_203\n        /* \"#utility.yul\":9792:9795   */\n      dup4\n        /* \"#utility.yul\":9786:9790   */\n      dup4\n        /* \"#utility.yul\":9767:9796   */\n      tag_84\n      jump\t// in\n    tag_203:\n        /* \"#utility.yul\":9759:9796   */\n      swap2\n      pop\n        /* \"#utility.yul\":9829:9832   */\n      dup3\n        /* \"#utility.yul\":9826:9827   */\n      0x02\n        /* \"#utility.yul\":9822:9833   */\n      mul\n        /* \"#utility.yul\":9816:9820   */\n      dup3\n        /* \"#utility.yul\":9813:9834   */\n      or\n        /* \"#utility.yul\":9805:9834   */\n      swap1\n      pop\n        /* \"#utility.yul\":9545:9840   */\n      swap3\n      swap2\n      pop\n      pop\n      jump\t// out\n        /* \"#utility.yul\":9845:11240   */\n    tag_45:\n        /* \"#utility.yul\":9962:9999   */\n      tag_205\n        /* \"#utility.yul\":9995:9998   */\n      dup3\n        /* \"#utility.yul\":9962:9999   */\n      tag_65\n      jump\t// in\n    tag_205:\n        /* \"#utility.yul\":10064:10082   */\n      0xffffffffffffffff\n        /* \"#utility.yul\":10056:10062   */\n      dup2\n        /* \"#utility.yul\":10053:10083   */\n      gt\n        /* \"#utility.yul\":10050:10106   */\n      iszero\n      tag_206\n      jumpi\n        /* \"#utility.yul\":10086:10104   */\n      tag_207\n      tag_54\n      jump\t// in\n    tag_207:\n        /* \"#utility.yul\":10050:10106   */\n    tag_206:\n        /* \"#utility.yul\":10130:10168   */\n      tag_208\n        /* \"#utility.yul\":10162:10166   */\n      dup3\n        /* \"#utility.yul\":10156:10167   */\n      sload\n        /* \"#utility.yul\":10130:10168   */\n      tag_33\n      jump\t// in\n    tag_208:\n        /* \"#utility.yul\":10215:10282   */\n      tag_209\n        /* \"#utility.yul\":10275:10281   */\n      dup3\n        /* \"#utility.yul\":10267:10273   */\n      dup3\n        /* \"#utility.yul\":10261:10265   */\n      dup6\n        /* \"#utility.yul\":10215:10282   */\n      tag_82\n      jump\t// in\n    tag_209:\n        /* \"#utility.yul\":10309:10310   */\n      0x00\n        /* \"#utility.yul\":10333:10337   */\n      0x20\n        /* \"#utility.yul\":10320:10337   */\n      swap1\n      pop\n        /* \"#utility.yul\":10365:10367   */\n      0x1f\n        /* \"#utility.yul\":10357:10363   */\n      dup4\n        /* \"#utility.yul\":10354:10368   */\n      gt\n        /* \"#utility.yul\":10382:10383   */\n      0x01\n        /* \"#utility.yul\":10377:10995   */\n      dup2\n      eq\n      tag_211\n      jumpi\n        /* \"#utility.yul\":11039:11040   */\n      0x00\n        /* \"#utility.yul\":11056:11062   */\n      dup5\n        /* \"#utility.yul\":11053:11130   */\n      iszero\n      tag_212\n      jumpi\n        /* \"#utility.yul\":11105:11114   */\n      dup3\n        /* \"#utility.yul\":11100:11103   */\n      dup8\n        /* \"#utility.yul\":11096:11115   */\n      add\n        /* \"#utility.yul\":11090:11116   */\n      mload\n        /* \"#utility.yul\":11081:11116   */\n      swap1\n      pop\n        /* \"#utility.yul\":11053:11130   */\n    tag_212:\n        /* \"#utility.yul\":11156:11223   */\n      tag_213\n        /* \"#utility.yul\":11216:11222   */\n      dup6\n        /* \"#utility.yul\":11209:11214   */\n      dup3\n        /* \"#utility.yul\":11156:11223   */\n      tag_85\n      jump\t// in\n    tag_213:\n        /* \"#utility.yul\":11150:11154   */\n      dup7\n        /* \"#utility.yul\":11143:11224   */\n      sstore\n        /* \"#utility.yul\":11012:11234   */\n      pop\n        /* \"#utility.yul\":10347:11234   */\n      jump(tag_210)\n        /* \"#utility.yul\":10377:10995   */\n    tag_211:\n        /* \"#utility.yul\":10429:10433   */\n      0x1f\n        /* \"#utility.yul\":10425:10434   */\n      not\n        /* \"#utility.yul\":10417:10423   */\n      dup5\n        /* \"#utility.yul\":10413:10435   */\n      and\n        /* \"#utility.yul\":10463:10500   */\n      tag_214\n        /* \"#utility.yul\":10495:10499   */\n      dup7\n        /* \"#utility.yul\":10463:10500   */\n      tag_71\n      jump\t// in\n    tag_214:\n        /* \"#utility.yul\":10522:10523   */\n      0x00\n        /* \"#utility.yul\":10536:10744   */\n    tag_215:\n        /* \"#utility.yul\":10550:10557   */\n      dup3\n        /* \"#utility.yul\":10547:10548   */\n      dup2\n        /* \"#utility.yul\":10544:10558   */\n      lt\n        /* \"#utility.yul\":10536:10744   */\n      iszero\n      tag_217\n      jumpi\n        /* \"#utility.yul\":10629:10638   */\n      dup5\n        /* \"#utility.yul\":10624:10627   */\n      dup10\n        /* \"#utility.yul\":10620:10639   */\n      add\n        /* \"#utility.yul\":10614:10640   */\n      mload\n        /* \"#utility.yul\":10606:10612   */\n      dup3\n        /* \"#utility.yul\":10599:10641   */\n      sstore\n        /* \"#utility.yul\":10680:10681   */\n      0x01\n        /* \"#utility.yul\":10672:10678   */\n      dup3\n        /* \"#utility.yul\":10668:10682   */\n      add\n        /* \"#utility.yul\":10658:10682   */\n      swap2\n      pop\n        /* \"#utility.yul\":10727:10729   */\n      0x20\n        /* \"#utility.yul\":10716:10725   */\n      dup6\n        /* \"#utility.yul\":10712:10730   */\n      add\n        /* \"#utility.yul\":10699:10730   */\n      swap5\n      pop\n        /* \"#utility.yul\":10573:10577   */\n      0x20\n        /* \"#utility.yul\":10570:10571   */\n      dup2\n        /* \"#utility.yul\":10566:10578   */\n      add\n        /* \"#utility.yul\":10561:10578   */\n      swap1\n      pop\n        /* \"#utility.yul\":10536:10744   */\n      jump(tag_215)\n    tag_217:\n        /* \"#utility.yul\":10772:10778   */\n      dup7\n        /* \"#utility.yul\":10763:10770   */\n      dup4\n        /* \"#utility.yul\":10760:10779   */\n      lt\n        /* \"#utility.yul\":10757:10936   */\n      iszero\n      tag_218\n      jumpi\n        /* \"#utility.yul\":10830:10839   */\n      dup5\n        /* \"#utility.yul\":10825:10828   */\n      dup10\n        /* \"#utility.yul\":10821:10840   */\n      add\n        /* \"#utility.yul\":10815:10841   */\n      mload\n        /* \"#utility.yul\":10873:10921   */\n      tag_219\n        /* \"#utility.yul\":10915:10919   */\n      0x1f\n        /* \"#utility.yul\":10907:10913   */\n      dup10\n        /* \"#utility.yul\":10903:10920   */\n      and\n        /* \"#utility.yul\":10892:10901   */\n      dup3\n        /* \"#utility.yul\":10873:10921   */\n      tag_84\n      jump\t// in\n    tag_219:\n        /* \"#utility.yul\":10865:10871   */\n      dup4\n        /* \"#utility.yul\":10858:10922   */\n      sstore\n        /* \"#utility.yul\":10780:10936   */\n      pop\n        /* \"#utility.yul\":10757:10936   */\n    tag_218:\n        /* \"#utility.yul\":10982:10983   */\n      0x01\n        /* \"#utility.yul\":10978:10979   */\n      0x02\n        /* \"#utility.yul\":10970:10976   */\n      dup9\n        /* \"#utility.yul\":10966:10980   */\n      mul\n        /* \"#utility.yul\":10962:10984   */\n      add\n        /* \"#utility.yul\":10956:10960   */\n      dup9\n        /* \"#utility.yul\":10949:10985   */\n      sstore\n        /* \"#utility.yul\":10384:10995   */\n      pop\n      pop\n      pop\n        /* \"#utility.yul\":10347:11234   */\n    tag_210:\n      pop\n        /* \"#utility.yul\":9937:11240   */\n      pop\n      pop\n      pop\n        /* \"#utility.yul\":9845:11240   */\n      pop\n      pop\n      jump\t// out\n        /* \"#utility.yul\":11246:11394   */\n    tag_86:\n        /* \"#utility.yul\":11348:11359   */\n      0x00\n        /* \"#utility.yul\":11385:11388   */\n      dup2\n        /* \"#utility.yul\":11370:11388   */\n      swap1\n      pop\n        /* \"#utility.yul\":11246:11394   */\n      swap3\n      swap2\n      pop\n      pop\n      jump\t// out\n        /* \"#utility.yul\":11400:11790   */\n    tag_87:\n        /* \"#utility.yul\":11506:11509   */\n      0x00\n        /* \"#utility.yul\":11534:11573   */\n      tag_222\n        /* \"#utility.yul\":11567:11572   */\n      dup3\n        /* \"#utility.yul\":11534:11573   */\n      tag_65\n      jump\t// in\n    tag_222:\n        /* \"#utility.yul\":11589:11678   */\n      tag_223\n        /* \"#utility.yul\":11671:11677   */\n      dup2\n        /* \"#utility.yul\":11666:11669   */\n      dup6\n        /* \"#utility.yul\":11589:11678   */\n      tag_86\n      jump\t// in\n    tag_223:\n        /* \"#utility.yul\":11582:11678   */\n      swap4\n      pop\n        /* \"#utility.yul\":11687:11752   */\n      tag_224\n        /* \"#utility.yul\":11745:11751   */\n      dup2\n        /* \"#utility.yul\":11740:11743   */\n      dup6\n        /* \"#utility.yul\":11733:11737   */\n      0x20\n        /* \"#utility.yul\":11726:11731   */\n      dup7\n        /* \"#utility.yul\":11722:11738   */\n      add\n        /* \"#utility.yul\":11687:11752   */\n      tag_67\n      jump\t// in\n    tag_224:\n        /* \"#utility.yul\":11777:11783   */\n      dup1\n        /* \"#utility.yul\":11772:11775   */\n      dup5\n        /* \"#utility.yul\":11768:11784   */\n      add\n        /* \"#utility.yul\":11761:11784   */\n      swap2\n      pop\n        /* \"#utility.yul\":11510:11790   */\n      pop\n        /* \"#utility.yul\":11400:11790   */\n      swap3\n      swap2\n      pop\n      pop\n      jump\t// out\n        /* \"#utility.yul\":11796:12071   */\n    tag_47:\n        /* \"#utility.yul\":11928:11931   */\n      0x00\n        /* \"#utility.yul\":11950:12045   */\n      tag_226\n        /* \"#utility.yul\":12041:12044   */\n      dup3\n        /* \"#utility.yul\":12032:12038   */\n      dup5\n        /* \"#utility.yul\":11950:12045   */\n      tag_87\n      jump\t// in\n    tag_226:\n        /* \"#utility.yul\":11943:12045   */\n      swap2\n      pop\n        /* \"#utility.yul\":12062:12065   */\n      dup2\n        /* \"#utility.yul\":12055:12065   */\n      swap1\n      pop\n        /* \"#utility.yul\":11796:12071   */\n      swap3\n      swap2\n      pop\n      pop\n      jump\t// out\n\n    auxdata: 0xa26469706673582212202e818801e321e3156fd9799bac4104c005c5633dba6a4f148173fcd46ce6c91b64736f6c634300081e0033\n}\n",
				"bytecode": {
					"linkReferences": {},
					"object": "6080604052348015600e575f5ffd5b506109478061001c5f395ff3fe608060405234801561000f575f5ffd5b5060043610610055575f3560e01c806318f0822a146100595780632ebce631146100895780636057361d146100ba5780637b656fba146100d6578063bc832d4e146100f4575b5f5ffd5b610073600480360381019061006e91906103e0565b610110565b604051610080919061043f565b60405180910390f35b6100a3600480360381019061009e9190610482565b61013d565b6040516100b192919061050d565b60405180910390f35b6100d460048036038101906100cf9190610482565b6101f2565b005b6100de610207565b6040516100eb919061043f565b60405180910390f35b61010e6004803603810190610109919061053b565b61020f565b005b6002818051602081018201805184825260208301602085012081835280955050505050505f915090505481565b6001818154811061014c575f80fd5b905f5260205f2090600202015f91509050805f015490806001018054610171906105c2565b80601f016020809104026020016040519081016040528092919081815260200182805461019d906105c2565b80156101e85780601f106101bf576101008083540402835291602001916101e8565b820191905f5260205f20905b8154815290600101906020018083116101cb57829003601f168201915b5050505050905082565b6005816101ff919061061f565b5f8190555050565b5f5f54905090565b6001604051806040016040528084815260200183815250908060018154018082558091505060019003905f5260205f2090600202015f909190919091505f820151815f0155602082015181600101908161026991906107f2565b5050508160028260405161027d91906108fb565b9081526020016040518091039020819055505050565b5f604051905090565b5f5ffd5b5f5ffd5b5f5ffd5b5f5ffd5b5f601f19601f8301169050919050565b7f4e487b71000000000000000000000000000000000000000000000000000000005f52604160045260245ffd5b6102f2826102ac565b810181811067ffffffffffffffff82111715610311576103106102bc565b5b80604052505050565b5f610323610293565b905061032f82826102e9565b919050565b5f67ffffffffffffffff82111561034e5761034d6102bc565b5b610357826102ac565b9050602081019050919050565b828183375f83830152505050565b5f61038461037f84610334565b61031a565b9050828152602081018484840111156103a05761039f6102a8565b5b6103ab848285610364565b509392505050565b5f82601f8301126103c7576103c66102a4565b5b81356103d7848260208601610372565b91505092915050565b5f602082840312156103f5576103f461029c565b5b5f82013567ffffffffffffffff811115610412576104116102a0565b5b61041e848285016103b3565b91505092915050565b5f819050919050565b61043981610427565b82525050565b5f6020820190506104525f830184610430565b92915050565b61046181610427565b811461046b575f5ffd5b50565b5f8135905061047c81610458565b92915050565b5f602082840312156104975761049661029c565b5b5f6104a48482850161046e565b91505092915050565b5f81519050919050565b5f82825260208201905092915050565b8281835e5f83830152505050565b5f6104df826104ad565b6104e981856104b7565b93506104f98185602086016104c7565b610502816102ac565b840191505092915050565b5f6040820190506105205f830185610430565b818103602083015261053281846104d5565b90509392505050565b5f5f604083850312156105515761055061029c565b5b5f61055e8582860161046e565b925050602083013567ffffffffffffffff81111561057f5761057e6102a0565b5b61058b858286016103b3565b9150509250929050565b7f4e487b71000000000000000000000000000000000000000000000000000000005f52602260045260245ffd5b5f60028204905060018216806105d957607f821691505b6020821081036105ec576105eb610595565b5b50919050565b7f4e487b71000000000000000000000000000000000000000000000000000000005f52601160045260245ffd5b5f61062982610427565b915061063483610427565b925082820190508082111561064c5761064b6105f2565b5b92915050565b5f819050815f5260205f209050919050565b5f6020601f8301049050919050565b5f82821b905092915050565b5f600883026106ae7fffffffffffffffffffffffffffffffffffffffffffffffffffffffffffffffff82610673565b6106b88683610673565b95508019841693508086168417925050509392505050565b5f819050919050565b5f6106f36106ee6106e984610427565b6106d0565b610427565b9050919050565b5f819050919050565b61070c836106d9565b610720610718826106fa565b84845461067f565b825550505050565b5f5f905090565b610737610728565b610742818484610703565b505050565b5b818110156107655761075a5f8261072f565b600181019050610748565b5050565b601f8211156107aa5761077b81610652565b61078484610664565b81016020851015610793578190505b6107a761079f85610664565b830182610747565b50505b505050565b5f82821c905092915050565b5f6107ca5f19846008026107af565b1980831691505092915050565b5f6107e283836107bb565b9150826002028217905092915050565b6107fb826104ad565b67ffffffffffffffff811115610814576108136102bc565b5b61081e82546105c2565b610829828285610769565b5f60209050601f83116001811461085a575f8415610848578287015190505b61085285826107d7565b8655506108b9565b601f19841661086886610652565b5f5b8281101561088f5784890151825560018201915060208501945060208101905061086a565b868310156108ac57848901516108a8601f8916826107bb565b8355505b6001600288020188555050505b505050505050565b5f81905092915050565b5f6108d5826104ad565b6108df81856108c1565b93506108ef8185602086016104c7565b80840191505092915050565b5f61090682846108cb565b91508190509291505056fea26469706673582212202e818801e321e3156fd9799bac4104c005c5633dba6a4f148173fcd46ce6c91b64736f6c634300081e0033",
					"opcodes": "PUSH1 0x80 PUSH1 0x40 MSTORE CALLVALUE DUP1 ISZERO PUSH1 0xE JUMPI PUSH0 PUSH0 REVERT JUMPDEST POP PUSH2 0x947 DUP1 PUSH2 0x1C PUSH0 CODECOPY PUSH0 RETURN INVALID PUSH1 0x80 PUSH1 0x40 MSTORE CALLVALUE DUP1 ISZERO PUSH2 0xF JUMPI PUSH0 PUSH0 REVERT JUMPDEST POP PUSH1 0x4 CALLDATASIZE LT PUSH2 0x55 JUMPI PUSH0 CALLDATALOAD PUSH1 0xE0 SHR DUP1 PUSH4 0x18F0822A EQ PUSH2 0x59 JUMPI DUP1 PUSH4 0x2EBCE631 EQ PUSH2 0x89 JUMPI DUP1 PUSH4 0x6057361D EQ PUSH2 0xBA JUMPI DUP1 PUSH4 0x7B656FBA EQ PUSH2 0xD6 JUMPI DUP1 PUSH4 0xBC832D4E EQ PUSH2 0xF4 JUMPI JUMPDEST PUSH0 PUSH0 REVERT JUMPDEST PUSH2 0x73 PUSH1 0x4 DUP1 CALLDATASIZE SUB DUP2 ADD SWAP1 PUSH2 0x6E SWAP2 SWAP1 PUSH2 0x3E0 JUMP JUMPDEST PUSH2 0x110 JUMP JUMPDEST PUSH1 0x40 MLOAD PUSH2 0x80 SWAP2 SWAP1 PUSH2 0x43F JUMP JUMPDEST PUSH1 0x40 MLOAD DUP1 SWAP2 SUB SWAP1 RETURN JUMPDEST PUSH2 0xA3 PUSH1 0x4 DUP1 CALLDATASIZE SUB DUP2 ADD SWAP1 PUSH2 0x9E SWAP2 SWAP1 PUSH2 0x482 JUMP JUMPDEST PUSH2 0x13D JUMP JUMPDEST PUSH1 0x40 MLOAD PUSH2 0xB1 SWAP3 SWAP2 SWAP1 PUSH2 0x50D JUMP JUMPDEST PUSH1 0x40 MLOAD DUP1 SWAP2 SUB SWAP1 RETURN JUMPDEST PUSH2 0xD4 PUSH1 0x4 DUP1 CALLDATASIZE SUB DUP2 ADD SWAP1 PUSH2 0xCF SWAP2 SWAP1 PUSH2 0x482 JUMP JUMPDEST PUSH2 0x1F2 JUMP JUMPDEST STOP JUMPDEST PUSH2 0xDE PUSH2 0x207 JUMP JUMPDEST PUSH1 0x40 MLOAD PUSH2 0xEB SWAP2 SWAP1 PUSH2 0x43F JUMP JUMPDEST PUSH1 0x40 MLOAD DUP1 SWAP2 SUB SWAP1 RETURN JUMPDEST PUSH2 0x10E PUSH1 0x4 DUP1 CALLDATASIZE SUB DUP2 ADD SWAP1 PUSH2 0x109 SWAP2 SWAP1 PUSH2 0x53B JUMP JUMPDEST PUSH2 0x20F JUMP JUMPDEST STOP JUMPDEST PUSH1 0x2 DUP2 DUP1 MLOAD PUSH1 0x20 DUP2 ADD DUP3 ADD DUP1 MLOAD DUP5 DUP3 MSTORE PUSH1 0x20 DUP4 ADD PUSH1 0x20 DUP6 ADD KECCAK256 DUP2 DUP4 MSTORE DUP1 SWAP6 POP POP POP POP POP POP PUSH0 SWAP2 POP SWAP1 POP SLOAD DUP2 JUMP JUMPDEST PUSH1 0x1 DUP2 DUP2 SLOAD DUP2 LT PUSH2 0x14C JUMPI PUSH0 DUP1 REVERT JUMPDEST SWAP1 PUSH0 MSTORE PUSH1 0x20 PUSH0 KECCAK256 SWAP1 PUSH1 0x2 MUL ADD PUSH0 SWAP2 POP SWAP1 POP DUP1 PUSH0 ADD SLOAD SWAP1 DUP1 PUSH1 0x1 ADD DUP1 SLOAD PUSH2 0x171 SWAP1 PUSH2 0x5C2 JUMP JUMPDEST DUP1 PUSH1 0x1F ADD PUSH1 0x20 DUP1 SWAP2 DIV MUL PUSH1 0x20 ADD PUSH1 0x40 MLOAD SWAP1 DUP2 ADD PUSH1 0x40 MSTORE DUP1 SWAP3 SWAP2 SWAP1 DUP2 DUP2 MSTORE PUSH1 0x20 ADD DUP3 DUP1 SLOAD PUSH2 0x19D SWAP1 PUSH2 0x5C2 JUMP JUMPDEST DUP1 ISZERO PUSH2 0x1E8 JUMPI DUP1 PUSH1 0x1F LT PUSH2 0x1BF JUMPI PUSH2 0x100 DUP1 DUP4 SLOAD DIV MUL DUP4 MSTORE SWAP2 PUSH1 0x20 ADD SWAP2 PUSH2 0x1E8 JUMP JUMPDEST DUP3 ADD SWAP2 SWAP1 PUSH0 MSTORE PUSH1 0x20 PUSH0 KECCAK256 SWAP1 JUMPDEST DUP2 SLOAD DUP2 MSTORE SWAP1 PUSH1 0x1 ADD SWAP1 PUSH1 0x20 ADD DUP1 DUP4 GT PUSH2 0x1CB JUMPI DUP3 SWAP1 SUB PUSH1 0x1F AND DUP3 ADD SWAP2 JUMPDEST POP POP POP POP POP SWAP1 POP DUP3 JUMP JUMPDEST PUSH1 0x5 DUP2 PUSH2 0x1FF SWAP2 SWAP1 PUSH2 0x61F JUMP JUMPDEST PUSH0 DUP2 SWAP1 SSTORE POP POP JUMP JUMPDEST PUSH0 PUSH0 SLOAD SWAP1 POP SWAP1 JUMP JUMPDEST PUSH1 0x1 PUSH1 0x40 MLOAD DUP1 PUSH1 0x40 ADD PUSH1 0x40 MSTORE DUP1 DUP5 DUP2 MSTORE PUSH1 0x20 ADD DUP4 DUP2 MSTORE POP SWAP1 DUP1 PUSH1 0x1 DUP2 SLOAD ADD DUP1 DUP3 SSTORE DUP1 SWAP2 POP POP PUSH1 0x1 SWAP1 SUB SWAP1 PUSH0 MSTORE PUSH1 0x20 PUSH0 KECCAK256 SWAP1 PUSH1 0x2 MUL ADD PUSH0 SWAP1 SWAP2 SWAP1 SWAP2 SWAP1 SWAP2 POP PUSH0 DUP3 ADD MLOAD DUP2 PUSH0 ADD SSTORE PUSH1 0x20 DUP3 ADD MLOAD DUP2 PUSH1 0x1 ADD SWAP1 DUP2 PUSH2 0x269 SWAP2 SWAP1 PUSH2 0x7F2 JUMP JUMPDEST POP POP POP DUP2 PUSH1 0x2 DUP3 PUSH1 0x40 MLOAD PUSH2 0x27D SWAP2 SWAP1 PUSH2 0x8FB JUMP JUMPDEST SWAP1 DUP2 MSTORE PUSH1 0x20 ADD PUSH1 0x40 MLOAD DUP1 SWAP2 SUB SWAP1 KECCAK256 DUP2 SWAP1 SSTORE POP POP POP JUMP JUMPDEST PUSH0 PUSH1 0x40 MLOAD SWAP1 POP SWAP1 JUMP JUMPDEST PUSH0 PUSH0 REVERT JUMPDEST PUSH0 PUSH0 REVERT JUMPDEST PUSH0 PUSH0 REVERT JUMPDEST PUSH0 PUSH0 REVERT JUMPDEST PUSH0 PUSH1 0x1F NOT PUSH1 0x1F DUP4 ADD AND SWAP1 POP SWAP2 SWAP1 POP JUMP JUMPDEST PUSH32 0x4E487B7100000000000000000000000000000000000000000000000000000000 PUSH0 MSTORE PUSH1 0x41 PUSH1 0x4 MSTORE PUSH1 0x24 PUSH0 REVERT JUMPDEST PUSH2 0x2F2 DUP3 PUSH2 0x2AC JUMP JUMPDEST DUP2 ADD DUP2 DUP2 LT PUSH8 0xFFFFFFFFFFFFFFFF DUP3 GT OR ISZERO PUSH2 0x311 JUMPI PUSH2 0x310 PUSH2 0x2BC JUMP JUMPDEST JUMPDEST DUP1 PUSH1 0x40 MSTORE POP POP POP JUMP JUMPDEST PUSH0 PUSH2 0x323 PUSH2 0x293 JUMP JUMPDEST SWAP1 POP PUSH2 0x32F DUP3 DUP3 PUSH2 0x2E9 JUMP JUMPDEST SWAP2 SWAP1 POP JUMP JUMPDEST PUSH0 PUSH8 0xFFFFFFFFFFFFFFFF DUP3 GT ISZERO PUSH2 0x34E JUMPI PUSH2 0x34D PUSH2 0x2BC JUMP JUMPDEST JUMPDEST PUSH2 0x357 DUP3 PUSH2 0x2AC JUMP JUMPDEST SWAP1 POP PUSH1 0x20 DUP2 ADD SWAP1 POP SWAP2 SWAP1 POP JUMP JUMPDEST DUP3 DUP2 DUP4 CALLDATACOPY PUSH0 DUP4 DUP4 ADD MSTORE POP POP POP JUMP JUMPDEST PUSH0 PUSH2 0x384 PUSH2 0x37F DUP5 PUSH2 0x334 JUMP JUMPDEST PUSH2 0x31A JUMP JUMPDEST SWAP1 POP DUP3 DUP2 MSTORE PUSH1 0x20 DUP2 ADD DUP5 DUP5 DUP5 ADD GT ISZERO PUSH2 0x3A0 JUMPI PUSH2 0x39F PUSH2 0x2A8 JUMP JUMPDEST JUMPDEST PUSH2 0x3AB DUP5 DUP3 DUP6 PUSH2 0x364 JUMP JUMPDEST POP SWAP4 SWAP3 POP POP POP JUMP JUMPDEST PUSH0 DUP3 PUSH1 0x1F DUP4 ADD SLT PUSH2 0x3C7 JUMPI PUSH2 0x3C6 PUSH2 0x2A4 JUMP JUMPDEST JUMPDEST DUP2 CALLDATALOAD PUSH2 0x3D7 DUP5 DUP3 PUSH1 0x20 DUP7 ADD PUSH2 0x372 JUMP JUMPDEST SWAP2 POP POP SWAP3 SWAP2 POP POP JUMP JUMPDEST PUSH0 PUSH1 0x20 DUP3 DUP5 SUB SLT ISZERO PUSH2 0x3F5 JUMPI PUSH2 0x3F4 PUSH2 0x29C JUMP JUMPDEST JUMPDEST PUSH0 DUP3 ADD CALLDATALOAD PUSH8 0xFFFFFFFFFFFFFFFF DUP2 GT ISZERO PUSH2 0x412 JUMPI PUSH2 0x411 PUSH2 0x2A0 JUMP JUMPDEST JUMPDEST PUSH2 0x41E DUP5 DUP3 DUP6 ADD PUSH2 0x3B3 JUMP JUMPDEST SWAP2 POP POP SWAP3 SWAP2 POP POP JUMP JUMPDEST PUSH0 DUP2 SWAP1 POP SWAP2 SWAP1 POP JUMP JUMPDEST PUSH2 0x439 DUP2 PUSH2 0x427 JUMP JUMPDEST DUP3 MSTORE POP POP JUMP JUMPDEST PUSH0 PUSH1 0x20 DUP3 ADD SWAP1 POP PUSH2 0x452 PUSH0 DUP4 ADD DUP5 PUSH2 0x430 JUMP JUMPDEST SWAP3 SWAP2 POP POP JUMP JUMPDEST PUSH2 0x461 DUP2 PUSH2 0x427 JUMP JUMPDEST DUP2 EQ PUSH2 0x46B JUMPI PUSH0 PUSH0 REVERT JUMPDEST POP JUMP JUMPDEST PUSH0 DUP2 CALLDATALOAD SWAP1 POP PUSH2 0x47C DUP2 PUSH2 0x458 JUMP JUMPDEST SWAP3 SWAP2 POP POP JUMP JUMPDEST PUSH0 PUSH1 0x20 DUP3 DUP5 SUB SLT ISZERO PUSH2 0x497 JUMPI PUSH2 0x496 PUSH2 0x29C JUMP JUMPDEST JUMPDEST PUSH0 PUSH2 0x4A4 DUP5 DUP3 DUP6 ADD PUSH2 0x46E JUMP JUMPDEST SWAP2 POP POP SWAP3 SWAP2 POP POP JUMP JUMPDEST PUSH0 DUP2 MLOAD SWAP1 POP SWAP2 SWAP1 POP JUMP JUMPDEST PUSH0 DUP3 DUP3 MSTORE PUSH1 0x20 DUP3 ADD SWAP1 POP SWAP3 SWAP2 POP POP JUMP JUMPDEST DUP3 DUP2 DUP4 MCOPY PUSH0 DUP4 DUP4 ADD MSTORE POP POP POP JUMP JUMPDEST PUSH0 PUSH2 0x4DF DUP3 PUSH2 0x4AD JUMP JUMPDEST PUSH2 0x4E9 DUP2 DUP6 PUSH2 0x4B7 JUMP JUMPDEST SWAP4 POP PUSH2 0x4F9 DUP2 DUP6 PUSH1 0x20 DUP7 ADD PUSH2 0x4C7 JUMP JUMPDEST PUSH2 0x502 DUP2 PUSH2 0x2AC JUMP JUMPDEST DUP5 ADD SWAP2 POP POP SWAP3 SWAP2 POP POP JUMP JUMPDEST PUSH0 PUSH1 0x40 DUP3 ADD SWAP1 POP PUSH2 0x520 PUSH0 DUP4 ADD DUP6 PUSH2 0x430 JUMP JUMPDEST DUP2 DUP2 SUB PUSH1 0x20 DUP4 ADD MSTORE PUSH2 0x532 DUP2 DUP5 PUSH2 0x4D5 JUMP JUMPDEST SWAP1 POP SWAP4 SWAP3 POP POP POP JUMP JUMPDEST PUSH0 PUSH0 PUSH1 0x40 DUP4 DUP6 SUB SLT ISZERO PUSH2 0x551 JUMPI PUSH2 0x550 PUSH2 0x29C JUMP JUMPDEST JUMPDEST PUSH0 PUSH2 0x55E DUP6 DUP3 DUP7 ADD PUSH2 0x46E JUMP JUMPDEST SWAP3 POP POP PUSH1 0x20 DUP4 ADD CALLDATALOAD PUSH8 0xFFFFFFFFFFFFFFFF DUP2 GT ISZERO PUSH2 0x57F JUMPI PUSH2 0x57E PUSH2 0x2A0 JUMP JUMPDEST JUMPDEST PUSH2 0x58B DUP6 DUP3 DUP7 ADD PUSH2 0x3B3 JUMP JUMPDEST SWAP2 POP POP SWAP3 POP SWAP3 SWAP1 POP JUMP JUMPDEST PUSH32 0x4E487B7100000000000000000000000000000000000000000000000000000000 PUSH0 MSTORE PUSH1 0x22 PUSH1 0x4 MSTORE PUSH1 0x24 PUSH0 REVERT JUMPDEST PUSH0 PUSH1 0x2 DUP3 DIV SWAP1 POP PUSH1 0x1 DUP3 AND DUP1 PUSH2 0x5D9 JUMPI PUSH1 0x7F DUP3 AND SWAP2 POP JUMPDEST PUSH1 0x20 DUP3 LT DUP2 SUB PUSH2 0x5EC JUMPI PUSH2 0x5EB PUSH2 0x595 JUMP JUMPDEST JUMPDEST POP SWAP2 SWAP1 POP JUMP JUMPDEST PUSH32 0x4E487B7100000000000000000000000000000000000000000000000000000000 PUSH0 MSTORE PUSH1 0x11 PUSH1 0x4 MSTORE PUSH1 0x24 PUSH0 REVERT JUMPDEST PUSH0 PUSH2 0x629 DUP3 PUSH2 0x427 JUMP JUMPDEST SWAP2 POP PUSH2 0x634 DUP4 PUSH2 0x427 JUMP JUMPDEST SWAP3 POP DUP3 DUP3 ADD SWAP1 POP DUP1 DUP3 GT ISZERO PUSH2 0x64C JUMPI PUSH2 0x64B PUSH2 0x5F2 JUMP JUMPDEST JUMPDEST SWAP3 SWAP2 POP POP JUMP JUMPDEST PUSH0 DUP2 SWAP1 POP DUP2 PUSH0 MSTORE PUSH1 0x20 PUSH0 KECCAK256 SWAP1 POP SWAP2 SWAP1 POP JUMP JUMPDEST PUSH0 PUSH1 0x20 PUSH1 0x1F DUP4 ADD DIV SWAP1 POP SWAP2 SWAP1 POP JUMP JUMPDEST PUSH0 DUP3 DUP3 SHL SWAP1 POP SWAP3 SWAP2 POP POP JUMP JUMPDEST PUSH0 PUSH1 0x8 DUP4 MUL PUSH2 0x6AE PUSH32 0xFFFFFFFFFFFFFFFFFFFFFFFFFFFFFFFFFFFFFFFFFFFFFFFFFFFFFFFFFFFFFFFF DUP3 PUSH2 0x673 JUMP JUMPDEST PUSH2 0x6B8 DUP7 DUP4 PUSH2 0x673 JUMP JUMPDEST SWAP6 POP DUP1 NOT DUP5 AND SWAP4 POP DUP1 DUP7 AND DUP5 OR SWAP3 POP POP POP SWAP4 SWAP3 POP POP POP JUMP JUMPDEST PUSH0 DUP2 SWAP1 POP SWAP2 SWAP1 POP JUMP JUMPDEST PUSH0 PUSH2 0x6F3 PUSH2 0x6EE PUSH2 0x6E9 DUP5 PUSH2 0x427 JUMP JUMPDEST PUSH2 0x6D0 JUMP JUMPDEST PUSH2 0x427 JUMP JUMPDEST SWAP1 POP SWAP2 SWAP1 POP JUMP JUMPDEST PUSH0 DUP2 SWAP1 POP SWAP2 SWAP1 POP JUMP JUMPDEST PUSH2 0x70C DUP4 PUSH2 0x6D9 JUMP JUMPDEST PUSH2 0x720 PUSH2 0x718 DUP3 PUSH2 0x6FA JUMP JUMPDEST DUP5 DUP5 SLOAD PUSH2 0x67F JUMP JUMPDEST DUP3 SSTORE POP POP POP POP JUMP JUMPDEST PUSH0 PUSH0 SWAP1 POP SWAP1 JUMP JUMPDEST PUSH2 0x737 PUSH2 0x728 JUMP JUMPDEST PUSH2 0x742 DUP2 DUP5 DUP5 PUSH2 0x703 JUMP JUMPDEST POP POP POP JUMP JUMPDEST JUMPDEST DUP2 DUP2 LT ISZERO PUSH2 0x765 JUMPI PUSH2 0x75A PUSH0 DUP3 PUSH2 0x72F JUMP JUMPDEST PUSH1 0x1 DUP2 ADD SWAP1 POP PUSH2 0x748 JUMP JUMPDEST POP POP JUMP JUMPDEST PUSH1 0x1F DUP3 GT ISZERO PUSH2 0x7AA JUMPI PUSH2 0x77B DUP2 PUSH2 0x652 JUMP JUMPDEST PUSH2 0x784 DUP5 PUSH2 0x664 JUMP JUMPDEST DUP2 ADD PUSH1 0x20 DUP6 LT ISZERO PUSH2 0x793 JUMPI DUP2 SWAP1 POP JUMPDEST PUSH2 0x7A7 PUSH2 0x79F DUP6 PUSH2 0x664 JUMP JUMPDEST DUP4 ADD DUP3 PUSH2 0x747 JUMP JUMPDEST POP POP JUMPDEST POP POP POP JUMP JUMPDEST PUSH0 DUP3 DUP3 SHR SWAP1 POP SWAP3 SWAP2 POP POP JUMP JUMPDEST PUSH0 PUSH2 0x7CA PUSH0 NOT DUP5 PUSH1 0x8 MUL PUSH2 0x7AF JUMP JUMPDEST NOT DUP1 DUP4 AND SWAP2 POP POP SWAP3 SWAP2 POP POP JUMP JUMPDEST PUSH0 PUSH2 0x7E2 DUP4 DUP4 PUSH2 0x7BB JUMP JUMPDEST SWAP2 POP DUP3 PUSH1 0x2 MUL DUP3 OR SWAP1 POP SWAP3 SWAP2 POP POP JUMP JUMPDEST PUSH2 0x7FB DUP3 PUSH2 0x4AD JUMP JUMPDEST PUSH8 0xFFFFFFFFFFFFFFFF DUP2 GT ISZERO PUSH2 0x814 JUMPI PUSH2 0x813 PUSH2 0x2BC JUMP JUMPDEST JUMPDEST PUSH2 0x81E DUP3 SLOAD PUSH2 0x5C2 JUMP JUMPDEST PUSH2 0x829 DUP3 DUP3 DUP6 PUSH2 0x769 JUMP JUMPDEST PUSH0 PUSH1 0x20 SWAP1 POP PUSH1 0x1F DUP4 GT PUSH1 0x1 DUP2 EQ PUSH2 0x85A JUMPI PUSH0 DUP5 ISZERO PUSH2 0x848 JUMPI DUP3 DUP8 ADD MLOAD SWAP1 POP JUMPDEST PUSH2 0x852 DUP6 DUP3 PUSH2 0x7D7 JUMP JUMPDEST DUP7 SSTORE POP PUSH2 0x8B9 JUMP JUMPDEST PUSH1 0x1F NOT DUP5 AND PUSH2 0x868 DUP7 PUSH2 0x652 JUMP JUMPDEST PUSH0 JUMPDEST DUP3 DUP2 LT ISZERO PUSH2 0x88F JUMPI DUP5 DUP10 ADD MLOAD DUP3 SSTORE PUSH1 0x1 DUP3 ADD SWAP2 POP PUSH1 0x20 DUP6 ADD SWAP5 POP PUSH1 0x20 DUP2 ADD SWAP1 POP PUSH2 0x86A JUMP JUMPDEST DUP7 DUP4 LT ISZERO PUSH2 0x8AC JUMPI DUP5 DUP10 ADD MLOAD PUSH2 0x8A8 PUSH1 0x1F DUP10 AND DUP3 PUSH2 0x7BB JUMP JUMPDEST DUP4 SSTORE POP JUMPDEST PUSH1 0x1 PUSH1 0x2 DUP9 MUL ADD DUP9 SSTORE POP POP POP JUMPDEST POP POP POP POP POP POP JUMP JUMPDEST PUSH0 DUP2 SWAP1 POP SWAP3 SWAP2 POP POP JUMP JUMPDEST PUSH0 PUSH2 0x8D5 DUP3 PUSH2 0x4AD JUMP JUMPDEST PUSH2 0x8DF DUP2 DUP6 PUSH2 0x8C1 JUMP JUMPDEST SWAP4 POP PUSH2 0x8EF DUP2 DUP6 PUSH1 0x20 DUP7 ADD PUSH2 0x4C7 JUMP JUMPDEST DUP1 DUP5 ADD SWAP2 POP POP SWAP3 SWAP2 POP POP JUMP JUMPDEST PUSH0 PUSH2 0x906 DUP3 DUP5 PUSH2 0x8CB JUMP JUMPDEST SWAP2 POP DUP2 SWAP1 POP SWAP3 SWAP2 POP POP JUMP INVALID LOG2 PUSH5 0x6970667358 0x22 SLT KECCAK256 0x2E DUP2 DUP9 ADD CALLF 0x21E3 ISZERO PUSH16 0xD9799BAC4104C005C5633DBA6A4F1481 PUSH20 0xFCD46CE6C91B64736F6C634300081E0033000000 "
				},
				"gasEstimates": {
					"creation": {
						"codeDepositCost": "475000",
						"executionCost": "509",
						"totalCost": "475509"
					},
					"external": {
						"addPerson(uint256,string)": "infinite",
						"dictPerson(string)": "infinite",
						"getFavNum()": "2475",
						"listOfPeople(uint256)": "infinite",
						"store(uint256)": "infinite"
					}
				},
				"methodIdentifiers": {
					"addPerson(uint256,string)": "bc832d4e",
					"dictPerson(string)": "18f0822a",
					"getFavNum()": "7b656fba",
					"listOfPeople(uint256)": "2ebce631",
					"store(uint256)": "6057361d"
				}
			},
			"storageLayout": {
				"storage": [
					{
						"astId": 23,
						"contract": "addFiveStorage.sol:AddFiveStorage",
						"label": "myFavNum",
						"offset": 0,
						"slot": "0",
						"type": "t_uint256"
					},
					{
						"astId": 32,
						"contract": "addFiveStorage.sol:AddFiveStorage",
						"label": "listOfPeople",
						"offset": 0,
						"slot": "1",
						"type": "t_array(t_struct(Person)28_storage)dyn_storage"
					},
					{
						"astId": 36,
						"contract": "addFiveStorage.sol:AddFiveStorage",
						"label": "dictPerson",
						"offset": 0,
						"slot": "2",
						"type": "t_mapping(t_string_memory_ptr,t_uint256)"
					}
				],
				"types": {
					"t_array(t_struct(Person)28_storage)dyn_storage": {
						"base": "t_struct(Person)28_storage",
						"encoding": "dynamic_array",
						"label": "struct SimpleStorage.Person[]",
						"numberOfBytes": "32"
					},
					"t_mapping(t_string_memory_ptr,t_uint256)": {
						"encoding": "mapping",
						"key": "t_string_memory_ptr",
						"label": "mapping(string => uint256)",
						"numberOfBytes": "32",
						"value": "t_uint256"
					},
					"t_string_memory_ptr": {
						"encoding": "bytes",
						"label": "string",
						"numberOfBytes": "32"
					},
					"t_string_storage": {
						"encoding": "bytes",
						"label": "string",
						"numberOfBytes": "32"
					},
					"t_struct(Person)28_storage": {
						"encoding": "inplace",
						"label": "struct SimpleStorage.Person",
						"members": [
							{
								"astId": 25,
								"contract": "addFiveStorage.sol:AddFiveStorage",
								"label": "favNum",
								"offset": 0,
								"slot": "0",
								"type": "t_uint256"
							},
							{
								"astId": 27,
								"contract": "addFiveStorage.sol:AddFiveStorage",
								"label": "name",
								"offset": 0,
								"slot": "1",
								"type": "t_string_storage"
							}
						],
						"numberOfBytes": "64"
					},
					"t_uint256": {
						"encoding": "inplace",
						"label": "uint256",
						"numberOfBytes": "32"
					}
				}
			},
			"userdoc": {
				"kind": "user",
				"methods": {},
				"version": 1
			}
		}
	}
}