{
	"data": {
		"bytecode": {
			"linkReferences": {},
			"object": "6080604052348015600e575f5ffd5b50610b6a8061001c5f395ff3fe608060405234801561000f575f5ffd5b5060043610610034575f3560e01c80630fc6d078146100385780631dda654114610068575b5f5ffd5b610052600480360381019061004d9190610176565b610072565b60405161005f919061021b565b60405180910390f35b6100706100ac565b005b5f8181548110610080575f80fd5b905f5260205f20015f915054906101000a900473ffffffffffffffffffffffffffffffffffffffff1681565b5f6040516100b990610132565b604051809103905ff0801580156100d2573d5f5f3e3d5ffd5b50908060018154018082558091505060019003905f5260205f20015f9091909190916101000a81548173ffffffffffffffffffffffffffffffffffffffff021916908373ffffffffffffffffffffffffffffffffffffffff160217905550565b6109008061023583390190565b5f5ffd5b5f819050919050565b61015581610143565b811461015f575f5ffd5b50565b5f813590506101708161014c565b92915050565b5f6020828403121561018b5761018a61013f565b5b5f61019884828501610162565b91505092915050565b5f73ffffffffffffffffffffffffffffffffffffffff82169050919050565b5f819050919050565b5f6101e36101de6101d9846101a1565b6101c0565b6101a1565b9050919050565b5f6101f4826101c9565b9050919050565b5f610205826101ea565b9050919050565b610215816101fb565b82525050565b5f60208201905061022e5f83018461020c565b9291505056fe6080604052348015600e575f5ffd5b506108e48061001c5f395ff3fe608060405234801561000f575f5ffd5b5060043610610055575f3560e01c806318f0822a146100595780632ebce631146100895780636057361d146100ba5780637b656fba146100d6578063bc832d4e146100f4575b5f5ffd5b610073600480360381019061006e91906103dd565b610110565b604051610080919061043c565b60405180910390f35b6100a3600480360381019061009e919061047f565b61013d565b6040516100b192919061050a565b60405180910390f35b6100d460048036038101906100cf919061047f565b6101f2565b005b6100de610204565b6040516100eb919061043c565b60405180910390f35b61010e60048036038101906101099190610538565b61020c565b005b6002818051602081018201805184825260208301602085012081835280955050505050505f915090505481565b6001818154811061014c575f80fd5b905f5260205f2090600202015f91509050805f015490806001018054610171906105bf565b80601f016020809104026020016040519081016040528092919081815260200182805461019d906105bf565b80156101e85780601f106101bf576101008083540402835291602001916101e8565b820191905f5260205f20905b8154815290600101906020018083116101cb57829003601f168201915b5050505050905082565b805f81905550610200610204565b5050565b5f5f54905090565b6001604051806040016040528084815260200183815250908060018154018082558091505060019003905f5260205f2090600202015f909190919091505f820151815f01556020820151816001019081610266919061078f565b5050508160028260405161027a9190610898565b9081526020016040518091039020819055505050565b5f604051905090565b5f5ffd5b5f5ffd5b5f5ffd5b5f5ffd5b5f601f19601f8301169050919050565b7f4e487b71000000000000000000000000000000000000000000000000000000005f52604160045260245ffd5b6102ef826102a9565b810181811067ffffffffffffffff8211171561030e5761030d6102b9565b5b80604052505050565b5f610320610290565b905061032c82826102e6565b919050565b5f67ffffffffffffffff82111561034b5761034a6102b9565b5b610354826102a9565b9050602081019050919050565b828183375f83830152505050565b5f61038161037c84610331565b610317565b90508281526020810184848401111561039d5761039c6102a5565b5b6103a8848285610361565b509392505050565b5f82601f8301126103c4576103c36102a1565b5b81356103d484826020860161036f565b91505092915050565b5f602082840312156103f2576103f1610299565b5b5f82013567ffffffffffffffff81111561040f5761040e61029d565b5b61041b848285016103b0565b91505092915050565b5f819050919050565b61043681610424565b82525050565b5f60208201905061044f5f83018461042d565b92915050565b61045e81610424565b8114610468575f5ffd5b50565b5f8135905061047981610455565b92915050565b5f6020828403121561049457610493610299565b5b5f6104a18482850161046b565b91505092915050565b5f81519050919050565b5f82825260208201905092915050565b8281835e5f83830152505050565b5f6104dc826104aa565b6104e681856104b4565b93506104f68185602086016104c4565b6104ff816102a9565b840191505092915050565b5f60408201905061051d5f83018561042d565b818103602083015261052f81846104d2565b90509392505050565b5f5f6040838503121561054e5761054d610299565b5b5f61055b8582860161046b565b925050602083013567ffffffffffffffff81111561057c5761057b61029d565b5b610588858286016103b0565b9150509250929050565b7f4e487b71000000000000000000000000000000000000000000000000000000005f52602260045260245ffd5b5f60028204905060018216806105d657607f821691505b6020821081036105e9576105e8610592565b5b50919050565b5f819050815f5260205f209050919050565b5f6020601f8301049050919050565b5f82821b905092915050565b5f6008830261064b7fffffffffffffffffffffffffffffffffffffffffffffffffffffffffffffffff82610610565b6106558683610610565b95508019841693508086168417925050509392505050565b5f819050919050565b5f61069061068b61068684610424565b61066d565b610424565b9050919050565b5f819050919050565b6106a983610676565b6106bd6106b582610697565b84845461061c565b825550505050565b5f5f905090565b6106d46106c5565b6106df8184846106a0565b505050565b5b81811015610702576106f75f826106cc565b6001810190506106e5565b5050565b601f82111561074757610718816105ef565b61072184610601565b81016020851015610730578190505b61074461073c85610601565b8301826106e4565b50505b505050565b5f82821c905092915050565b5f6107675f198460080261074c565b1980831691505092915050565b5f61077f8383610758565b9150826002028217905092915050565b610798826104aa565b67ffffffffffffffff8111156107b1576107b06102b9565b5b6107bb82546105bf565b6107c6828285610706565b5f60209050601f8311600181146107f7575f84156107e5578287015190505b6107ef8582610774565b865550610856565b601f198416610805866105ef565b5f5b8281101561082c57848901518255600182019150602085019450602081019050610807565b868310156108495784890151610845601f891682610758565b8355505b6001600288020188555050505b505050505050565b5f81905092915050565b5f610872826104aa565b61087c818561085e565b935061088c8185602086016104c4565b80840191505092915050565b5f6108a38284610868565b91508190509291505056fea26469706673582212201152435da094fbb8d8815a6144f387a984defe544477a8865cc20c2fad6a29d764736f6c634300081e0033a26469706673582212200ff4e8ade108e75a7d92942e36d50d8e4f3f50b3b64158f323ca72e65bb4d4d664736f6c634300081e0033",
			"opcodes": "PUSH1 0x80 PUSH1 0x40 MSTORE CALLVALUE DUP1 ISZERO PUSH1 0xE JUMPI PUSH0 PUSH0 REVERT JUMPDEST POP PUSH2 0xB6A DUP1 PUSH2 0x1C PUSH0 CODECOPY PUSH0 RETURN INVALID PUSH1 0x80 PUSH1 0x40 MSTORE CALLVALUE DUP1 ISZERO PUSH2 0xF JUMPI PUSH0 PUSH0 REVERT JUMPDEST POP PUSH1 0x4 CALLDATASIZE LT PUSH2 0x34 JUMPI PUSH0 CALLDATALOAD PUSH1 0xE0 SHR DUP1 PUSH4 0xFC6D078 EQ PUSH2 0x38 JUMPI DUP1 PUSH4 0x1DDA6541 EQ PUSH2 0x68 JUMPI JUMPDEST PUSH0 PUSH0 REVERT JUMPDEST PUSH2 0x52 PUSH1 0x4 DUP1 CALLDATASIZE SUB DUP2 ADD SWAP1 PUSH2 0x4D SWAP2 SWAP1 PUSH2 0x176 JUMP JUMPDEST PUSH2 0x72 JUMP JUMPDEST PUSH1 0x40 MLOAD PUSH2 0x5F SWAP2 SWAP1 PUSH2 0x21B JUMP JUMPDEST PUSH1 0x40 MLOAD DUP1 SWAP2 SUB SWAP1 RETURN JUMPDEST PUSH2 0x70 PUSH2 0xAC JUMP JUMPDEST STOP JUMPDEST PUSH0 DUP2 DUP2 SLOAD DUP2 LT PUSH2 0x80 JUMPI PUSH0 DUP1 REVERT JUMPDEST SWAP1 PUSH0 MSTORE PUSH1 0x20 PUSH0 KECCAK256 ADD PUSH0 SWAP2 POP SLOAD SWAP1 PUSH2 0x100 EXP SWAP1 DIV PUSH20 0xFFFFFFFFFFFFFFFFFFFFFFFFFFFFFFFFFFFFFFFF AND DUP2 JUMP JUMPDEST PUSH0 PUSH1 0x40 MLOAD PUSH2 0xB9 SWAP1 PUSH2 0x132 JUMP JUMPDEST PUSH1 0x40 MLOAD DUP1 SWAP2 SUB SWAP1 PUSH0 CREATE DUP1 ISZERO DUP1 ISZERO PUSH2 0xD2 JUMPI RETURNDATASIZE PUSH0 PUSH0 RETURNDATACOPY RETURNDATASIZE PUSH0 REVERT JUMPDEST POP SWAP1 DUP1 PUSH1 0x1 DUP2 SLOAD ADD DUP1 DUP3 SSTORE DUP1 SWAP2 POP POP PUSH1 0x1 SWAP1 SUB SWAP1 PUSH0 MSTORE PUSH1 0x20 PUSH0 KECCAK256 ADD PUSH0 SWAP1 SWAP2 SWAP1 SWAP2 SWAP1 SWAP2 PUSH2 0x100 EXP DUP2 SLOAD DUP2 PUSH20 0xFFFFFFFFFFFFFFFFFFFFFFFFFFFFFFFFFFFFFFFF MUL NOT AND SWAP1 DUP4 PUSH20 0xFFFFFFFFFFFFFFFFFFFFFFFFFFFFFFFFFFFFFFFF AND MUL OR SWAP1 SSTORE POP JUMP JUMPDEST PUSH2 0x900 DUP1 PUSH2 0x235 DUP4 CODECOPY ADD SWAP1 JUMP JUMPDEST PUSH0 PUSH0 REVERT JUMPDEST PUSH0 DUP2 SWAP1 POP SWAP2 SWAP1 POP JUMP JUMPDEST PUSH2 0x155 DUP2 PUSH2 0x143 JUMP JUMPDEST DUP2 EQ PUSH2 0x15F JUMPI PUSH0 PUSH0 REVERT JUMPDEST POP JUMP JUMPDEST PUSH0 DUP2 CALLDATALOAD SWAP1 POP PUSH2 0x170 DUP2 PUSH2 0x14C JUMP JUMPDEST SWAP3 SWAP2 POP POP JUMP JUMPDEST PUSH0 PUSH1 0x20 DUP3 DUP5 SUB SLT ISZERO PUSH2 0x18B JUMPI PUSH2 0x18A PUSH2 0x13F JUMP JUMPDEST JUMPDEST PUSH0 PUSH2 0x198 DUP5 DUP3 DUP6 ADD PUSH2 0x162 JUMP JUMPDEST SWAP2 POP POP SWAP3 SWAP2 POP POP JUMP JUMPDEST PUSH0 PUSH20 0xFFFFFFFFFFFFFFFFFFFFFFFFFFFFFFFFFFFFFFFF DUP3 AND SWAP1 POP SWAP2 SWAP1 POP JUMP JUMPDEST PUSH0 DUP2 SWAP1 POP SWAP2 SWAP1 POP JUMP JUMPDEST PUSH0 PUSH2 0x1E3 PUSH2 0x1DE PUSH2 0x1D9 DUP5 PUSH2 0x1A1 JUMP JUMPDEST PUSH2 0x1C0 JUMP JUMPDEST PUSH2 0x1A1 JUMP JUMPDEST SWAP1 POP SWAP2 SWAP1 POP JUMP JUMPDEST PUSH0 PUSH2 0x1F4 DUP3 PUSH2 0x1C9 JUMP JUMPDEST SWAP1 POP SWAP2 SWAP1 POP JUMP JUMPDEST PUSH0 PUSH2 0x205 DUP3 PUSH2 0x1EA JUMP JUMPDEST SWAP1 POP SWAP2 SWAP1 POP JUMP JUMPDEST PUSH2 0x215 DUP2 PUSH2 0x1FB JUMP JUMPDEST DUP3 MSTORE POP POP JUMP JUMPDEST PUSH0 PUSH1 0x20 DUP3 ADD SWAP1 POP PUSH2 0x22E PUSH0 DUP4 ADD DUP5 PUSH2 0x20C JUMP JUMPDEST SWAP3 SWAP2 POP POP JUMP INVALID PUSH1 0x80 PUSH1 0x40 MSTORE CALLVALUE DUP1 ISZERO PUSH1 0xE JUMPI PUSH0 PUSH0 REVERT JUMPDEST POP PUSH2 0x8E4 DUP1 PUSH2 0x1C PUSH0 CODECOPY PUSH0 RETURN INVALID PUSH1 0x80 PUSH1 0x40 MSTORE CALLVALUE DUP1 ISZERO PUSH2 0xF JUMPI PUSH0 PUSH0 REVERT JUMPDEST POP PUSH1 0x4 CALLDATASIZE LT PUSH2 0x55 JUMPI PUSH0 CALLDATALOAD PUSH1 0xE0 SHR DUP1 PUSH4 0x18F0822A EQ PUSH2 0x59 JUMPI DUP1 PUSH4 0x2EBCE631 EQ PUSH2 0x89 JUMPI DUP1 PUSH4 0x6057361D EQ PUSH2 0xBA JUMPI DUP1 PUSH4 0x7B656FBA EQ PUSH2 0xD6 JUMPI DUP1 PUSH4 0xBC832D4E EQ PUSH2 0xF4 JUMPI JUMPDEST PUSH0 PUSH0 REVERT JUMPDEST PUSH2 0x73 PUSH1 0x4 DUP1 CALLDATASIZE SUB DUP2 ADD SWAP1 PUSH2 0x6E SWAP2 SWAP1 PUSH2 0x3DD JUMP JUMPDEST PUSH2 0x110 JUMP JUMPDEST PUSH1 0x40 MLOAD PUSH2 0x80 SWAP2 SWAP1 PUSH2 0x43C JUMP JUMPDEST PUSH1 0x40 MLOAD DUP1 SWAP2 SUB SWAP1 RETURN JUMPDEST PUSH2 0xA3 PUSH1 0x4 DUP1 CALLDATASIZE SUB DUP2 ADD SWAP1 PUSH2 0x9E SWAP2 SWAP1 PUSH2 0x47F JUMP JUMPDEST PUSH2 0x13D JUMP JUMPDEST PUSH1 0x40 MLOAD PUSH2 0xB1 SWAP3 SWAP2 SWAP1 PUSH2 0x50A JUMP JUMPDEST PUSH1 0x40 MLOAD DUP1 SWAP2 SUB SWAP1 RETURN JUMPDEST PUSH2 0xD4 PUSH1 0x4 DUP1 CALLDATASIZE SUB DUP2 ADD SWAP1 PUSH2 0xCF SWAP2 SWAP1 PUSH2 0x47F JUMP JUMPDEST PUSH2 0x1F2 JUMP JUMPDEST STOP JUMPDEST PUSH2 0xDE PUSH2 0x204 JUMP JUMPDEST PUSH1 0x40 MLOAD PUSH2 0xEB SWAP2 SWAP1 PUSH2 0x43C JUMP JUMPDEST PUSH1 0x40 MLOAD DUP1 SWAP2 SUB SWAP1 RETURN JUMPDEST PUSH2 0x10E PUSH1 0x4 DUP1 CALLDATASIZE SUB DUP2 ADD SWAP1 PUSH2 0x109 SWAP2 SWAP1 PUSH2 0x538 JUMP JUMPDEST PUSH2 0x20C JUMP JUMPDEST STOP JUMPDEST PUSH1 0x2 DUP2 DUP1 MLOAD PUSH1 0x20 DUP2 ADD DUP3 ADD DUP1 MLOAD DUP5 DUP3 MSTORE PUSH1 0x20 DUP4 ADD PUSH1 0x20 DUP6 ADD KECCAK256 DUP2 DUP4 MSTORE DUP1 SWAP6 POP POP POP POP POP POP PUSH0 SWAP2 POP SWAP1 POP SLOAD DUP2 JUMP JUMPDEST PUSH1 0x1 DUP2 DUP2 SLOAD DUP2 LT PUSH2 0x14C JUMPI PUSH0 DUP1 REVERT JUMPDEST SWAP1 PUSH0 MSTORE PUSH1 0x20 PUSH0 KECCAK256 SWAP1 PUSH1 0x2 MUL ADD PUSH0 SWAP2 POP SWAP1 POP DUP1 PUSH0 ADD SLOAD SWAP1 DUP1 PUSH1 0x1 ADD DUP1 SLOAD PUSH2 0x171 SWAP1 PUSH2 0x5BF JUMP JUMPDEST DUP1 PUSH1 0x1F ADD PUSH1 0x20 DUP1 SWAP2 DIV MUL PUSH1 0x20 ADD PUSH1 0x40 MLOAD SWAP1 DUP2 ADD PUSH1 0x40 MSTORE DUP1 SWAP3 SWAP2 SWAP1 DUP2 DUP2 MSTORE PUSH1 0x20 ADD DUP3 DUP1 SLOAD PUSH2 0x19D SWAP1 PUSH2 0x5BF JUMP JUMPDEST DUP1 ISZERO PUSH2 0x1E8 JUMPI DUP1 PUSH1 0x1F LT PUSH2 0x1BF JUMPI PUSH2 0x100 DUP1 DUP4 SLOAD DIV MUL DUP4 MSTORE SWAP2 PUSH1 0x20 ADD SWAP2 PUSH2 0x1E8 JUMP JUMPDEST DUP3 ADD SWAP2 SWAP1 PUSH0 MSTORE PUSH1 0x20 PUSH0 KECCAK256 SWAP1 JUMPDEST DUP2 SLOAD DUP2 MSTORE SWAP1 PUSH1 0x1 ADD SWAP1 PUSH1 0x20 ADD DUP1 DUP4 GT PUSH2 0x1CB JUMPI DUP3 SWAP1 SUB PUSH1 0x1F AND DUP3 ADD SWAP2 JUMPDEST POP POP POP POP POP SWAP1 POP DUP3 JUMP JUMPDEST DUP1 PUSH0 DUP2 SWAP1 SSTORE POP PUSH2 0x200 PUSH2 0x204 JUMP JUMPDEST POP POP JUMP JUMPDEST PUSH0 PUSH0 SLOAD SWAP1 POP SWAP1 JUMP JUMPDEST PUSH1 0x1 PUSH1 0x40 MLOAD DUP1 PUSH1 0x40 ADD PUSH1 0x40 MSTORE DUP1 DUP5 DUP2 MSTORE PUSH1 0x20 ADD DUP4 DUP2 MSTORE POP SWAP1 DUP1 PUSH1 0x1 DUP2 SLOAD ADD DUP1 DUP3 SSTORE DUP1 SWAP2 POP POP PUSH1 0x1 SWAP1 SUB SWAP1 PUSH0 MSTORE PUSH1 0x20 PUSH0 KECCAK256 SWAP1 PUSH1 0x2 MUL ADD PUSH0 SWAP1 SWAP2 SWAP1 SWAP2 SWAP1 SWAP2 POP PUSH0 DUP3 ADD MLOAD DUP2 PUSH0 ADD SSTORE PUSH1 0x20 DUP3 ADD MLOAD DUP2 PUSH1 0x1 ADD SWAP1 DUP2 PUSH2 0x266 SWAP2 SWAP1 PUSH2 0x78F JUMP JUMPDEST POP POP POP DUP2 PUSH1 0x2 DUP3 PUSH1 0x40 MLOAD PUSH2 0x27A SWAP2 SWAP1 PUSH2 0x898 JUMP JUMPDEST SWAP1 DUP2 MSTORE PUSH1 0x20 ADD PUSH1 0x40 MLOAD DUP1 SWAP2 SUB SWAP1 KECCAK256 DUP2 SWAP1 SSTORE POP POP POP JUMP JUMPDEST PUSH0 PUSH1 0x40 MLOAD SWAP1 POP SWAP1 JUMP JUMPDEST PUSH0 PUSH0 REVERT JUMPDEST PUSH0 PUSH0 REVERT JUMPDEST PUSH0 PUSH0 REVERT JUMPDEST PUSH0 PUSH0 REVERT JUMPDEST PUSH0 PUSH1 0x1F NOT PUSH1 0x1F DUP4 ADD AND SWAP1 POP SWAP2 SWAP1 POP JUMP JUMPDEST PUSH32 0x4E487B7100000000000000000000000000000000000000000000000000000000 PUSH0 MSTORE PUSH1 0x41 PUSH1 0x4 MSTORE PUSH1 0x24 PUSH0 REVERT JUMPDEST PUSH2 0x2EF DUP3 PUSH2 0x2A9 JUMP JUMPDEST DUP2 ADD DUP2 DUP2 LT PUSH8 0xFFFFFFFFFFFFFFFF DUP3 GT OR ISZERO PUSH2 0x30E JUMPI PUSH2 0x30D PUSH2 0x2B9 JUMP JUMPDEST JUMPDEST DUP1 PUSH1 0x40 MSTORE POP POP POP JUMP JUMPDEST PUSH0 PUSH2 0x320 PUSH2 0x290 JUMP JUMPDEST SWAP1 POP PUSH2 0x32C DUP3 DUP3 PUSH2 0x2E6 JUMP JUMPDEST SWAP2 SWAP1 POP JUMP JUMPDEST PUSH0 PUSH8 0xFFFFFFFFFFFFFFFF DUP3 GT ISZERO PUSH2 0x34B JUMPI PUSH2 0x34A PUSH2 0x2B9 JUMP JUMPDEST JUMPDEST PUSH2 0x354 DUP3 PUSH2 0x2A9 JUMP JUMPDEST SWAP1 POP PUSH1 0x20 DUP2 ADD SWAP1 POP SWAP2 SWAP1 POP JUMP JUMPDEST DUP3 DUP2 DUP4 CALLDATACOPY PUSH0 DUP4 DUP4 ADD MSTORE POP POP POP JUMP JUMPDEST PUSH0 PUSH2 0x381 PUSH2 0x37C DUP5 PUSH2 0x331 JUMP JUMPDEST PUSH2 0x317 JUMP JUMPDEST SWAP1 POP DUP3 DUP2 MSTORE PUSH1 0x20 DUP2 ADD DUP5 DUP5 DUP5 ADD GT ISZERO PUSH2 0x39D JUMPI PUSH2 0x39C PUSH2 0x2A5 JUMP JUMPDEST JUMPDEST PUSH2 0x3A8 DUP5 DUP3 DUP6 PUSH2 0x361 JUMP JUMPDEST POP SWAP4 SWAP3 POP POP POP JUMP JUMPDEST PUSH0 DUP3 PUSH1 0x1F DUP4 ADD SLT PUSH2 0x3C4 JUMPI PUSH2 0x3C3 PUSH2 0x2A1 JUMP JUMPDEST JUMPDEST DUP2 CALLDATALOAD PUSH2 0x3D4 DUP5 DUP3 PUSH1 0x20 DUP7 ADD PUSH2 0x36F JUMP JUMPDEST SWAP2 POP POP SWAP3 SWAP2 POP POP JUMP JUMPDEST PUSH0 PUSH1 0x20 DUP3 DUP5 SUB SLT ISZERO PUSH2 0x3F2 JUMPI PUSH2 0x3F1 PUSH2 0x299 JUMP JUMPDEST JUMPDEST PUSH0 DUP3 ADD CALLDATALOAD PUSH8 0xFFFFFFFFFFFFFFFF DUP2 GT ISZERO PUSH2 0x40F JUMPI PUSH2 0x40E PUSH2 0x29D JUMP JUMPDEST JUMPDEST PUSH2 0x41B DUP5 DUP3 DUP6 ADD PUSH2 0x3B0 JUMP JUMPDEST SWAP2 POP POP SWAP3 SWAP2 POP POP JUMP JUMPDEST PUSH0 DUP2 SWAP1 POP SWAP2 SWAP1 POP JUMP JUMPDEST PUSH2 0x436 DUP2 PUSH2 0x424 JUMP JUMPDEST DUP3 MSTORE POP POP JUMP JUMPDEST PUSH0 PUSH1 0x20 DUP3 ADD SWAP1 POP PUSH2 0x44F PUSH0 DUP4 ADD DUP5 PUSH2 0x42D JUMP JUMPDEST SWAP3 SWAP2 POP POP JUMP JUMPDEST PUSH2 0x45E DUP2 PUSH2 0x424 JUMP JUMPDEST DUP2 EQ PUSH2 0x468 JUMPI PUSH0 PUSH0 REVERT JUMPDEST POP JUMP JUMPDEST PUSH0 DUP2 CALLDATALOAD SWAP1 POP PUSH2 0x479 DUP2 PUSH2 0x455 JUMP JUMPDEST SWAP3 SWAP2 POP POP JUMP JUMPDEST PUSH0 PUSH1 0x20 DUP3 DUP5 SUB SLT ISZERO PUSH2 0x494 JUMPI PUSH2 0x493 PUSH2 0x299 JUMP JUMPDEST JUMPDEST PUSH0 PUSH2 0x4A1 DUP5 DUP3 DUP6 ADD PUSH2 0x46B JUMP JUMPDEST SWAP2 POP POP SWAP3 SWAP2 POP POP JUMP JUMPDEST PUSH0 DUP2 MLOAD SWAP1 POP SWAP2 SWAP1 POP JUMP JUMPDEST PUSH0 DUP3 DUP3 MSTORE PUSH1 0x20 DUP3 ADD SWAP1 POP SWAP3 SWAP2 POP POP JUMP JUMPDEST DUP3 DUP2 DUP4 MCOPY PUSH0 DUP4 DUP4 ADD MSTORE POP POP POP JUMP JUMPDEST PUSH0 PUSH2 0x4DC DUP3 PUSH2 0x4AA JUMP JUMPDEST PUSH2 0x4E6 DUP2 DUP6 PUSH2 0x4B4 JUMP JUMPDEST SWAP4 POP PUSH2 0x4F6 DUP2 DUP6 PUSH1 0x20 DUP7 ADD PUSH2 0x4C4 JUMP JUMPDEST PUSH2 0x4FF DUP2 PUSH2 0x2A9 JUMP JUMPDEST DUP5 ADD SWAP2 POP POP SWAP3 SWAP2 POP POP JUMP JUMPDEST PUSH0 PUSH1 0x40 DUP3 ADD SWAP1 POP PUSH2 0x51D PUSH0 DUP4 ADD DUP6 PUSH2 0x42D JUMP JUMPDEST DUP2 DUP2 SUB PUSH1 0x20 DUP4 ADD MSTORE PUSH2 0x52F DUP2 DUP5 PUSH2 0x4D2 JUMP JUMPDEST SWAP1 POP SWAP4 SWAP3 POP POP POP JUMP JUMPDEST PUSH0 PUSH0 PUSH1 0x40 DUP4 DUP6 SUB SLT ISZERO PUSH2 0x54E JUMPI PUSH2 0x54D PUSH2 0x299 JUMP JUMPDEST JUMPDEST PUSH0 PUSH2 0x55B DUP6 DUP3 DUP7 ADD PUSH2 0x46B JUMP JUMPDEST SWAP3 POP POP PUSH1 0x20 DUP4 ADD CALLDATALOAD PUSH8 0xFFFFFFFFFFFFFFFF DUP2 GT ISZERO PUSH2 0x57C JUMPI PUSH2 0x57B PUSH2 0x29D JUMP JUMPDEST JUMPDEST PUSH2 0x588 DUP6 DUP3 DUP7 ADD PUSH2 0x3B0 JUMP JUMPDEST SWAP2 POP POP SWAP3 POP SWAP3 SWAP1 POP JUMP JUMPDEST PUSH32 0x4E487B7100000000000000000000000000000000000000000000000000000000 PUSH0 MSTORE PUSH1 0x22 PUSH1 0x4 MSTORE PUSH1 0x24 PUSH0 REVERT JUMPDEST PUSH0 PUSH1 0x2 DUP3 DIV SWAP1 POP PUSH1 0x1 DUP3 AND DUP1 PUSH2 0x5D6 JUMPI PUSH1 0x7F DUP3 AND SWAP2 POP JUMPDEST PUSH1 0x20 DUP3 LT DUP2 SUB PUSH2 0x5E9 JUMPI PUSH2 0x5E8 PUSH2 0x592 JUMP JUMPDEST JUMPDEST POP SWAP2 SWAP1 POP JUMP JUMPDEST PUSH0 DUP2 SWAP1 POP DUP2 PUSH0 MSTORE PUSH1 0x20 PUSH0 KECCAK256 SWAP1 POP SWAP2 SWAP1 POP JUMP JUMPDEST PUSH0 PUSH1 0x20 PUSH1 0x1F DUP4 ADD DIV SWAP1 POP SWAP2 SWAP1 POP JUMP JUMPDEST PUSH0 DUP3 DUP3 SHL SWAP1 POP SWAP3 SWAP2 POP POP JUMP JUMPDEST PUSH0 PUSH1 0x8 DUP4 MUL PUSH2 0x64B PUSH32 0xFFFFFFFFFFFFFFFFFFFFFFFFFFFFFFFFFFFFFFFFFFFFFFFFFFFFFFFFFFFFFFFF DUP3 PUSH2 0x610 JUMP JUMPDEST PUSH2 0x655 DUP7 DUP4 PUSH2 0x610 JUMP JUMPDEST SWAP6 POP DUP1 NOT DUP5 AND SWAP4 POP DUP1 DUP7 AND DUP5 OR SWAP3 POP POP POP SWAP4 SWAP3 POP POP POP JUMP JUMPDEST PUSH0 DUP2 SWAP1 POP SWAP2 SWAP1 POP JUMP JUMPDEST PUSH0 PUSH2 0x690 PUSH2 0x68B PUSH2 0x686 DUP5 PUSH2 0x424 JUMP JUMPDEST PUSH2 0x66D JUMP JUMPDEST PUSH2 0x424 JUMP JUMPDEST SWAP1 POP SWAP2 SWAP1 POP JUMP JUMPDEST PUSH0 DUP2 SWAP1 POP SWAP2 SWAP1 POP JUMP JUMPDEST PUSH2 0x6A9 DUP4 PUSH2 0x676 JUMP JUMPDEST PUSH2 0x6BD PUSH2 0x6B5 DUP3 PUSH2 0x697 JUMP JUMPDEST DUP5 DUP5 SLOAD PUSH2 0x61C JUMP JUMPDEST DUP3 SSTORE POP POP POP POP JUMP JUMPDEST PUSH0 PUSH0 SWAP1 POP SWAP1 JUMP JUMPDEST PUSH2 0x6D4 PUSH2 0x6C5 JUMP JUMPDEST PUSH2 0x6DF DUP2 DUP5 DUP5 PUSH2 0x6A0 JUMP JUMPDEST POP POP POP JUMP JUMPDEST JUMPDEST DUP2 DUP2 LT ISZERO PUSH2 0x702 JUMPI PUSH2 0x6F7 PUSH0 DUP3 PUSH2 0x6CC JUMP JUMPDEST PUSH1 0x1 DUP2 ADD SWAP1 POP PUSH2 0x6E5 JUMP JUMPDEST POP POP JUMP JUMPDEST PUSH1 0x1F DUP3 GT ISZERO PUSH2 0x747 JUMPI PUSH2 0x718 DUP2 PUSH2 0x5EF JUMP JUMPDEST PUSH2 0x721 DUP5 PUSH2 0x601 JUMP JUMPDEST DUP2 ADD PUSH1 0x20 DUP6 LT ISZERO PUSH2 0x730 JUMPI DUP2 SWAP1 POP JUMPDEST PUSH2 0x744 PUSH2 0x73C DUP6 PUSH2 0x601 JUMP JUMPDEST DUP4 ADD DUP3 PUSH2 0x6E4 JUMP JUMPDEST POP POP JUMPDEST POP POP POP JUMP JUMPDEST PUSH0 DUP3 DUP3 SHR SWAP1 POP SWAP3 SWAP2 POP POP JUMP JUMPDEST PUSH0 PUSH2 0x767 PUSH0 NOT DUP5 PUSH1 0x8 MUL PUSH2 0x74C JUMP JUMPDEST NOT DUP1 DUP4 AND SWAP2 POP POP SWAP3 SWAP2 POP POP JUMP JUMPDEST PUSH0 PUSH2 0x77F DUP4 DUP4 PUSH2 0x758 JUMP JUMPDEST SWAP2 POP DUP3 PUSH1 0x2 MUL DUP3 OR SWAP1 POP SWAP3 SWAP2 POP POP JUMP JUMPDEST PUSH2 0x798 DUP3 PUSH2 0x4AA JUMP JUMPDEST PUSH8 0xFFFFFFFFFFFFFFFF DUP2 GT ISZERO PUSH2 0x7B1 JUMPI PUSH2 0x7B0 PUSH2 0x2B9 JUMP JUMPDEST JUMPDEST PUSH2 0x7BB DUP3 SLOAD PUSH2 0x5BF JUMP JUMPDEST PUSH2 0x7C6 DUP3 DUP3 DUP6 PUSH2 0x706 JUMP JUMPDEST PUSH0 PUSH1 0x20 SWAP1 POP PUSH1 0x1F DUP4 GT PUSH1 0x1 DUP2 EQ PUSH2 0x7F7 JUMPI PUSH0 DUP5 ISZERO PUSH2 0x7E5 JUMPI DUP3 DUP8 ADD MLOAD SWAP1 POP JUMPDEST PUSH2 0x7EF DUP6 DUP3 PUSH2 0x774 JUMP JUMPDEST DUP7 SSTORE POP PUSH2 0x856 JUMP JUMPDEST PUSH1 0x1F NOT DUP5 AND PUSH2 0x805 DUP7 PUSH2 0x5EF JUMP JUMPDEST PUSH0 JUMPDEST DUP3 DUP2 LT ISZERO PUSH2 0x82C JUMPI DUP5 DUP10 ADD MLOAD DUP3 SSTORE PUSH1 0x1 DUP3 ADD SWAP2 POP PUSH1 0x20 DUP6 ADD SWAP5 POP PUSH1 0x20 DUP2 ADD SWAP1 POP PUSH2 0x807 JUMP JUMPDEST DUP7 DUP4 LT ISZERO PUSH2 0x849 JUMPI DUP5 DUP10 ADD MLOAD PUSH2 0x845 PUSH1 0x1F DUP10 AND DUP3 PUSH2 0x758 JUMP JUMPDEST DUP4 SSTORE POP JUMPDEST PUSH1 0x1 PUSH1 0x2 DUP9 MUL ADD DUP9 SSTORE POP POP POP JUMPDEST POP POP POP POP POP POP JUMP JUMPDEST PUSH0 DUP2 SWAP1 POP SWAP3 SWAP2 POP POP JUMP JUMPDEST PUSH0 PUSH2 0x872 DUP3 PUSH2 0x4AA JUMP JUMPDEST PUSH2 0x87C DUP2 DUP6 PUSH2 0x85E JUMP JUMPDEST SWAP4 POP PUSH2 0x88C DUP2 DUP6 PUSH1 0x20 DUP7 ADD PUSH2 0x4C4 JUMP JUMPDEST DUP1 DUP5 ADD SWAP2 POP POP SWAP3 SWAP2 POP POP JUMP JUMPDEST PUSH0 PUSH2 0x8A3 DUP3 DUP5 PUSH2 0x868 JUMP JUMPDEST SWAP2 POP DUP2 SWAP1 POP SWAP3 SWAP2 POP POP JUMP INVALID LOG2 PUSH5 0x6970667358 0x22 SLT KECCAK256 GT MSTORE NUMBER TSTORE LOG0 SWAP5 EXTSTATICCALL 0xB8 0xD8 DUP2 GAS PUSH2 0x44F3 DUP8 0xA9 DUP5 0xDE INVALID SLOAD PREVRANDAO PUSH24 0xA8865CC20C2FAD6A29D764736F6C634300081E0033A26469 PUSH17 0x6673582212200FF4E8ADE108E75A7D9294 0x2E CALLDATASIZE 0xD5 0xD DUP15 0x4F EXTCODEHASH POP 0xB3 0xB6 COINBASE PC RETURN 0x23 0xCA PUSH19 0xE65BB4D4D664736F6C634300081E0033000000 "
		},
		"gasEstimates": {
			"creation": {
				"codeDepositCost": "584400",
				"executionCost": "617",
				"totalCost": "585017"
			},
			"external": {
				"createSimpleStorageContract()": "infinite",
				"listSimpleStorage(uint256)": "infinite"
			}
		},
		"methodIdentifiers": {
			"createSimpleStorageContract()": "1dda6541",
			"listSimpleStorage(uint256)": "0fc6d078"
		}
	},
	"abi": [
		{
			"inputs": [],
			"name": "createSimpleStorageContract",
			"outputs": [],
			"stateMutability": "nonpayable",
			"type": "function"
		},
		{
			"inputs": [
				{
					"internalType": "uint256",
					"name": "",
					"type": "uint256"
				}
			],
			"name": "listSimpleStorage",
			"outputs": [
				{
					"internalType": "contract SimpleStorage",
					"name": "",
					"type": "address"
				}
			],
			"stateMutability": "view",
			"type": "function"
		}
	]
}